{
  "contractName": "ERC1155PresetMinterPauser",
  "abi": [
    {
      "inputs": [
        {
          "internalType": "string",
          "name": "uri",
          "type": "string"
        }
      ],
      "stateMutability": "nonpayable",
      "type": "constructor"
    },
    {
      "anonymous": false,
      "inputs": [
        {
          "indexed": true,
          "internalType": "address",
          "name": "account",
          "type": "address"
        },
        {
          "indexed": true,
          "internalType": "address",
          "name": "operator",
          "type": "address"
        },
        {
          "indexed": false,
          "internalType": "bool",
          "name": "approved",
          "type": "bool"
        }
      ],
      "name": "ApprovalForAll",
      "type": "event"
    },
    {
      "anonymous": false,
      "inputs": [
        {
          "indexed": false,
          "internalType": "address",
          "name": "account",
          "type": "address"
        }
      ],
      "name": "Paused",
      "type": "event"
    },
    {
      "anonymous": false,
      "inputs": [
        {
          "indexed": true,
          "internalType": "bytes32",
          "name": "role",
          "type": "bytes32"
        },
        {
          "indexed": true,
          "internalType": "bytes32",
          "name": "previousAdminRole",
          "type": "bytes32"
        },
        {
          "indexed": true,
          "internalType": "bytes32",
          "name": "newAdminRole",
          "type": "bytes32"
        }
      ],
      "name": "RoleAdminChanged",
      "type": "event"
    },
    {
      "anonymous": false,
      "inputs": [
        {
          "indexed": true,
          "internalType": "bytes32",
          "name": "role",
          "type": "bytes32"
        },
        {
          "indexed": true,
          "internalType": "address",
          "name": "account",
          "type": "address"
        },
        {
          "indexed": true,
          "internalType": "address",
          "name": "sender",
          "type": "address"
        }
      ],
      "name": "RoleGranted",
      "type": "event"
    },
    {
      "anonymous": false,
      "inputs": [
        {
          "indexed": true,
          "internalType": "bytes32",
          "name": "role",
          "type": "bytes32"
        },
        {
          "indexed": true,
          "internalType": "address",
          "name": "account",
          "type": "address"
        },
        {
          "indexed": true,
          "internalType": "address",
          "name": "sender",
          "type": "address"
        }
      ],
      "name": "RoleRevoked",
      "type": "event"
    },
    {
      "anonymous": false,
      "inputs": [
        {
          "indexed": true,
          "internalType": "address",
          "name": "operator",
          "type": "address"
        },
        {
          "indexed": true,
          "internalType": "address",
          "name": "from",
          "type": "address"
        },
        {
          "indexed": true,
          "internalType": "address",
          "name": "to",
          "type": "address"
        },
        {
          "indexed": false,
          "internalType": "uint256[]",
          "name": "ids",
          "type": "uint256[]"
        },
        {
          "indexed": false,
          "internalType": "uint256[]",
          "name": "values",
          "type": "uint256[]"
        }
      ],
      "name": "TransferBatch",
      "type": "event"
    },
    {
      "anonymous": false,
      "inputs": [
        {
          "indexed": true,
          "internalType": "address",
          "name": "operator",
          "type": "address"
        },
        {
          "indexed": true,
          "internalType": "address",
          "name": "from",
          "type": "address"
        },
        {
          "indexed": true,
          "internalType": "address",
          "name": "to",
          "type": "address"
        },
        {
          "indexed": false,
          "internalType": "uint256",
          "name": "id",
          "type": "uint256"
        },
        {
          "indexed": false,
          "internalType": "uint256",
          "name": "value",
          "type": "uint256"
        }
      ],
      "name": "TransferSingle",
      "type": "event"
    },
    {
      "anonymous": false,
      "inputs": [
        {
          "indexed": false,
          "internalType": "string",
          "name": "value",
          "type": "string"
        },
        {
          "indexed": true,
          "internalType": "uint256",
          "name": "id",
          "type": "uint256"
        }
      ],
      "name": "URI",
      "type": "event"
    },
    {
      "anonymous": false,
      "inputs": [
        {
          "indexed": false,
          "internalType": "address",
          "name": "account",
          "type": "address"
        }
      ],
      "name": "Unpaused",
      "type": "event"
    },
    {
      "inputs": [],
      "name": "DEFAULT_ADMIN_ROLE",
      "outputs": [
        {
          "internalType": "bytes32",
          "name": "",
          "type": "bytes32"
        }
      ],
      "stateMutability": "view",
      "type": "function"
    },
    {
      "inputs": [],
      "name": "MINTER_ROLE",
      "outputs": [
        {
          "internalType": "bytes32",
          "name": "",
          "type": "bytes32"
        }
      ],
      "stateMutability": "view",
      "type": "function"
    },
    {
      "inputs": [],
      "name": "PAUSER_ROLE",
      "outputs": [
        {
          "internalType": "bytes32",
          "name": "",
          "type": "bytes32"
        }
      ],
      "stateMutability": "view",
      "type": "function"
    },
    {
      "inputs": [
        {
          "internalType": "address",
          "name": "account",
          "type": "address"
        },
        {
          "internalType": "uint256",
          "name": "id",
          "type": "uint256"
        }
      ],
      "name": "balanceOf",
      "outputs": [
        {
          "internalType": "uint256",
          "name": "",
          "type": "uint256"
        }
      ],
      "stateMutability": "view",
      "type": "function"
    },
    {
      "inputs": [
        {
          "internalType": "address[]",
          "name": "accounts",
          "type": "address[]"
        },
        {
          "internalType": "uint256[]",
          "name": "ids",
          "type": "uint256[]"
        }
      ],
      "name": "balanceOfBatch",
      "outputs": [
        {
          "internalType": "uint256[]",
          "name": "",
          "type": "uint256[]"
        }
      ],
      "stateMutability": "view",
      "type": "function"
    },
    {
      "inputs": [
        {
          "internalType": "address",
          "name": "account",
          "type": "address"
        },
        {
          "internalType": "uint256",
          "name": "id",
          "type": "uint256"
        },
        {
          "internalType": "uint256",
          "name": "value",
          "type": "uint256"
        }
      ],
      "name": "burn",
      "outputs": [],
      "stateMutability": "nonpayable",
      "type": "function"
    },
    {
      "inputs": [
        {
          "internalType": "address",
          "name": "account",
          "type": "address"
        },
        {
          "internalType": "uint256[]",
          "name": "ids",
          "type": "uint256[]"
        },
        {
          "internalType": "uint256[]",
          "name": "values",
          "type": "uint256[]"
        }
      ],
      "name": "burnBatch",
      "outputs": [],
      "stateMutability": "nonpayable",
      "type": "function"
    },
    {
      "inputs": [
        {
          "internalType": "bytes32",
          "name": "role",
          "type": "bytes32"
        }
      ],
      "name": "getRoleAdmin",
      "outputs": [
        {
          "internalType": "bytes32",
          "name": "",
          "type": "bytes32"
        }
      ],
      "stateMutability": "view",
      "type": "function"
    },
    {
      "inputs": [
        {
          "internalType": "bytes32",
          "name": "role",
          "type": "bytes32"
        },
        {
          "internalType": "uint256",
          "name": "index",
          "type": "uint256"
        }
      ],
      "name": "getRoleMember",
      "outputs": [
        {
          "internalType": "address",
          "name": "",
          "type": "address"
        }
      ],
      "stateMutability": "view",
      "type": "function"
    },
    {
      "inputs": [
        {
          "internalType": "bytes32",
          "name": "role",
          "type": "bytes32"
        }
      ],
      "name": "getRoleMemberCount",
      "outputs": [
        {
          "internalType": "uint256",
          "name": "",
          "type": "uint256"
        }
      ],
      "stateMutability": "view",
      "type": "function"
    },
    {
      "inputs": [
        {
          "internalType": "bytes32",
          "name": "role",
          "type": "bytes32"
        },
        {
          "internalType": "address",
          "name": "account",
          "type": "address"
        }
      ],
      "name": "grantRole",
      "outputs": [],
      "stateMutability": "nonpayable",
      "type": "function"
    },
    {
      "inputs": [
        {
          "internalType": "bytes32",
          "name": "role",
          "type": "bytes32"
        },
        {
          "internalType": "address",
          "name": "account",
          "type": "address"
        }
      ],
      "name": "hasRole",
      "outputs": [
        {
          "internalType": "bool",
          "name": "",
          "type": "bool"
        }
      ],
      "stateMutability": "view",
      "type": "function"
    },
    {
      "inputs": [
        {
          "internalType": "address",
          "name": "account",
          "type": "address"
        },
        {
          "internalType": "address",
          "name": "operator",
          "type": "address"
        }
      ],
      "name": "isApprovedForAll",
      "outputs": [
        {
          "internalType": "bool",
          "name": "",
          "type": "bool"
        }
      ],
      "stateMutability": "view",
      "type": "function"
    },
    {
      "inputs": [],
      "name": "paused",
      "outputs": [
        {
          "internalType": "bool",
          "name": "",
          "type": "bool"
        }
      ],
      "stateMutability": "view",
      "type": "function"
    },
    {
      "inputs": [
        {
          "internalType": "bytes32",
          "name": "role",
          "type": "bytes32"
        },
        {
          "internalType": "address",
          "name": "account",
          "type": "address"
        }
      ],
      "name": "renounceRole",
      "outputs": [],
      "stateMutability": "nonpayable",
      "type": "function"
    },
    {
      "inputs": [
        {
          "internalType": "bytes32",
          "name": "role",
          "type": "bytes32"
        },
        {
          "internalType": "address",
          "name": "account",
          "type": "address"
        }
      ],
      "name": "revokeRole",
      "outputs": [],
      "stateMutability": "nonpayable",
      "type": "function"
    },
    {
      "inputs": [
        {
          "internalType": "address",
          "name": "from",
          "type": "address"
        },
        {
          "internalType": "address",
          "name": "to",
          "type": "address"
        },
        {
          "internalType": "uint256[]",
          "name": "ids",
          "type": "uint256[]"
        },
        {
          "internalType": "uint256[]",
          "name": "amounts",
          "type": "uint256[]"
        },
        {
          "internalType": "bytes",
          "name": "data",
          "type": "bytes"
        }
      ],
      "name": "safeBatchTransferFrom",
      "outputs": [],
      "stateMutability": "nonpayable",
      "type": "function"
    },
    {
      "inputs": [
        {
          "internalType": "address",
          "name": "from",
          "type": "address"
        },
        {
          "internalType": "address",
          "name": "to",
          "type": "address"
        },
        {
          "internalType": "uint256",
          "name": "id",
          "type": "uint256"
        },
        {
          "internalType": "uint256",
          "name": "amount",
          "type": "uint256"
        },
        {
          "internalType": "bytes",
          "name": "data",
          "type": "bytes"
        }
      ],
      "name": "safeTransferFrom",
      "outputs": [],
      "stateMutability": "nonpayable",
      "type": "function"
    },
    {
      "inputs": [
        {
          "internalType": "address",
          "name": "operator",
          "type": "address"
        },
        {
          "internalType": "bool",
          "name": "approved",
          "type": "bool"
        }
      ],
      "name": "setApprovalForAll",
      "outputs": [],
      "stateMutability": "nonpayable",
      "type": "function"
    },
    {
      "inputs": [
        {
          "internalType": "uint256",
          "name": "",
          "type": "uint256"
        }
      ],
      "name": "uri",
      "outputs": [
        {
          "internalType": "string",
          "name": "",
          "type": "string"
        }
      ],
      "stateMutability": "view",
      "type": "function"
    },
    {
      "inputs": [
        {
          "internalType": "address",
          "name": "to",
          "type": "address"
        },
        {
          "internalType": "uint256",
          "name": "id",
          "type": "uint256"
        },
        {
          "internalType": "uint256",
          "name": "amount",
          "type": "uint256"
        },
        {
          "internalType": "bytes",
          "name": "data",
          "type": "bytes"
        }
      ],
      "name": "mint",
      "outputs": [],
      "stateMutability": "nonpayable",
      "type": "function"
    },
    {
      "inputs": [
        {
          "internalType": "address",
          "name": "to",
          "type": "address"
        },
        {
          "internalType": "uint256[]",
          "name": "ids",
          "type": "uint256[]"
        },
        {
          "internalType": "uint256[]",
          "name": "amounts",
          "type": "uint256[]"
        },
        {
          "internalType": "bytes",
          "name": "data",
          "type": "bytes"
        }
      ],
      "name": "mintBatch",
      "outputs": [],
      "stateMutability": "nonpayable",
      "type": "function"
    },
    {
      "inputs": [],
      "name": "pause",
      "outputs": [],
      "stateMutability": "nonpayable",
      "type": "function"
    },
    {
      "inputs": [],
      "name": "unpause",
      "outputs": [],
      "stateMutability": "nonpayable",
      "type": "function"
    },
    {
      "inputs": [
        {
          "internalType": "bytes4",
          "name": "interfaceId",
          "type": "bytes4"
        }
      ],
      "name": "supportsInterface",
      "outputs": [
        {
          "internalType": "bool",
          "name": "",
          "type": "bool"
        }
      ],
      "stateMutability": "view",
      "type": "function"
    }
  ],
  "bytecode": "0x60806040523480156200001157600080fd5b5060405162002d9138038062002d918339810160408190526200003491620002e7565b806200004081620000b7565b506005805460ff1916905562000058600033620000d0565b620000847f9f2df0fed2c77648de5860a4cc508cd0818c85b8b8a1ab4ceeef8d981c8956a633620000d0565b620000b07f65d7a28e3265b37a6474929f336521b332c1681b933f6cb9f3376673440d862a33620000d0565b50620003ff565b8051620000cc9060049060208401906200022b565b5050565b620000cc8282620000ed82826200011960201b62000ad31760201c565b60008281526001602090815260409091206200011491839062000b57620001b9821b17901c565b505050565b6000828152602081815260408083206001600160a01b038516845290915290205460ff16620000cc576000828152602081815260408083206001600160a01b03851684529091529020805460ff19166001179055620001753390565b6001600160a01b0316816001600160a01b0316837f2f8788117e7eff1d82e926ec794901d17c78024a50270940304540a733656f0d60405160405180910390a45050565b6000620001d0836001600160a01b038416620001d9565b90505b92915050565b60008181526001830160205260408120546200022257508154600181810184556000848152602080822090930184905584548482528286019093526040902091909155620001d3565b506000620001d3565b8280546200023990620003c3565b90600052602060002090601f0160209004810192826200025d5760008555620002a8565b82601f106200027857805160ff1916838001178555620002a8565b82800160010185558215620002a8579182015b82811115620002a85782518255916020019190600101906200028b565b50620002b6929150620002ba565b5090565b5b80821115620002b65760008155600101620002bb565b634e487b7160e01b600052604160045260246000fd5b60006020808385031215620002fb57600080fd5b82516001600160401b03808211156200031357600080fd5b818501915085601f8301126200032857600080fd5b8151818111156200033d576200033d620002d1565b604051601f8201601f19908116603f01168101908382118183101715620003685762000368620002d1565b8160405282815288868487010111156200038157600080fd5b600093505b82841015620003a5578484018601518185018701529285019262000386565b82841115620003b75760008684830101525b98975050505050505050565b600181811c90821680620003d857607f821691505b602082108103620003f957634e487b7160e01b600052602260045260246000fd5b50919050565b612982806200040f6000396000f3fe608060405234801561001057600080fd5b50600436106101725760003560e01c8063731133e9116100de578063ca15c87311610097578063e63ab1e911610071578063e63ab1e914610358578063e985e9c51461037f578063f242432a146103bb578063f5298aca146103ce57600080fd5b8063ca15c8731461030b578063d53913931461031e578063d547741f1461034557600080fd5b8063731133e9146102975780638456cb59146102aa5780639010d07c146102b257806391d14854146102dd578063a217fddf146102f0578063a22cb465146102f857600080fd5b80632f2ff15d116101305780632f2ff15d1461022b57806336568abe1461023e5780633f4ba83a146102515780634e1273f4146102595780635c975abb146102795780636b20c4541461028457600080fd5b8062fdd58e1461017757806301ffc9a71461019d5780630e89341c146101c05780631f7fdffa146101e0578063248a9ca3146101f55780632eb2c2d614610218575b600080fd5b61018a610185366004611d1e565b6103e1565b6040519081526020015b60405180910390f35b6101b06101ab366004611d5e565b61047d565b6040519015158152602001610194565b6101d36101ce366004611d7b565b610488565b6040516101949190611dec565b6101f36101ee366004611f4b565b61051c565b005b61018a610203366004611d7b565b60009081526020819052604090206001015490565b6101f3610226366004611fe4565b610574565b6101f361023936600461208e565b61060b565b6101f361024c36600461208e565b610635565b6101f36106b3565b61026c6102673660046120ba565b610759565b60405161019491906121c0565b60055460ff166101b0565b6101f36102923660046121d3565b610883565b6101f36102a5366004612247565b6108c6565b6101f3610918565b6102c56102c036600461229c565b6109bc565b6040516001600160a01b039091168152602001610194565b6101b06102eb36600461208e565b6109db565b61018a600081565b6101f36103063660046122be565b610a04565b61018a610319366004611d7b565b610a0f565b61018a7f9f2df0fed2c77648de5860a4cc508cd0818c85b8b8a1ab4ceeef8d981c8956a681565b6101f361035336600461208e565b610a26565b61018a7f65d7a28e3265b37a6474929f336521b332c1681b933f6cb9f3376673440d862a81565b6101b061038d3660046122fa565b6001600160a01b03918216600090815260036020908152604080832093909416825291909152205460ff1690565b6101f36103c9366004612324565b610a4b565b6101f36103dc366004612389565b610a90565b60006001600160a01b0383166104525760405162461bcd60e51b815260206004820152602b60248201527f455243313135353a2062616c616e636520717565727920666f7220746865207a60448201526a65726f206164647265737360a81b60648201526084015b60405180910390fd5b5060008181526002602090815260408083206001600160a01b03861684529091529020545b92915050565b600061047782610b6c565b606060048054610497906123bc565b80601f01602080910402602001604051908101604052809291908181526020018280546104c3906123bc565b80156105105780601f106104e557610100808354040283529160200191610510565b820191906000526020600020905b8154815290600101906020018083116104f357829003601f168201915b50505050509050919050565b6105467f9f2df0fed2c77648de5860a4cc508cd0818c85b8b8a1ab4ceeef8d981c8956a6336109db565b6105625760405162461bcd60e51b8152600401610449906123f6565b61056e84848484610bac565b50505050565b6001600160a01b0385163314806105905750610590853361038d565b6105f75760405162461bcd60e51b815260206004820152603260248201527f455243313135353a207472616e736665722063616c6c6572206973206e6f74206044820152711bdddb995c881b9bdc88185c1c1c9bdd995960721b6064820152608401610449565b6106048585858585610d07565b5050505050565b60008281526020819052604090206001015461062681610eb4565b6106308383610ec1565b505050565b6001600160a01b03811633146106a55760405162461bcd60e51b815260206004820152602f60248201527f416363657373436f6e74726f6c3a2063616e206f6e6c792072656e6f756e636560448201526e103937b632b9903337b91039b2b63360891b6064820152608401610449565b6106af8282610ee3565b5050565b6106dd7f65d7a28e3265b37a6474929f336521b332c1681b933f6cb9f3376673440d862a336109db565b61074f5760405162461bcd60e51b815260206004820152603b60248201527f455243313135355072657365744d696e7465725061757365723a206d7573742060448201527f686176652070617573657220726f6c6520746f20756e706175736500000000006064820152608401610449565b610757610f05565b565b606081518351146107be5760405162461bcd60e51b815260206004820152602960248201527f455243313135353a206163636f756e747320616e6420696473206c656e677468604482015268040dad2e6dac2e8c6d60bb1b6064820152608401610449565b6000835167ffffffffffffffff8111156107da576107da611dff565b604051908082528060200260200182016040528015610803578160200160208202803683370190505b50905060005b845181101561087b5761084e85828151811061082757610827612453565b602002602001015185838151811061084157610841612453565b60200260200101516103e1565b82828151811061086057610860612453565b60209081029190910101526108748161247f565b9050610809565b509392505050565b6001600160a01b03831633148061089f575061089f833361038d565b6108bb5760405162461bcd60e51b815260040161044990612498565b610630838383610f98565b6108f07f9f2df0fed2c77648de5860a4cc508cd0818c85b8b8a1ab4ceeef8d981c8956a6336109db565b61090c5760405162461bcd60e51b8152600401610449906123f6565b61056e84848484611137565b6109427f65d7a28e3265b37a6474929f336521b332c1681b933f6cb9f3376673440d862a336109db565b6109b45760405162461bcd60e51b815260206004820152603960248201527f455243313135355072657365744d696e7465725061757365723a206d7573742060448201527f686176652070617573657220726f6c6520746f207061757365000000000000006064820152608401610449565b610757611222565b60008281526001602052604081206109d4908361129d565b9392505050565b6000918252602082815260408084206001600160a01b0393909316845291905290205460ff1690565b6106af3383836112a9565b600081815260016020526040812061047790611389565b600082815260208190526040902060010154610a4181610eb4565b6106308383610ee3565b6001600160a01b038516331480610a675750610a67853361038d565b610a835760405162461bcd60e51b815260040161044990612498565b6106048585858585611393565b6001600160a01b038316331480610aac5750610aac833361038d565b610ac85760405162461bcd60e51b815260040161044990612498565b6106308383836114cf565b610add82826109db565b6106af576000828152602081815260408083206001600160a01b03851684529091529020805460ff19166001179055610b133390565b6001600160a01b0316816001600160a01b0316837f2f8788117e7eff1d82e926ec794901d17c78024a50270940304540a733656f0d60405160405180910390a45050565b60006109d4836001600160a01b0384166115eb565b60006001600160e01b03198216636cdb3d1360e11b1480610b9d57506001600160e01b031982166303a24d0760e21b145b8061047757506104778261163a565b6001600160a01b038416610bd25760405162461bcd60e51b8152600401610449906124e1565b8151835114610bf35760405162461bcd60e51b815260040161044990612522565b33610c038160008787878761165f565b60005b8451811015610c9f57838181518110610c2157610c21612453565b602002602001015160026000878481518110610c3f57610c3f612453565b602002602001015181526020019081526020016000206000886001600160a01b03166001600160a01b031681526020019081526020016000206000828254610c87919061256a565b90915550819050610c978161247f565b915050610c06565b50846001600160a01b031660006001600160a01b0316826001600160a01b03167f4a39dc06d4c0dbc64b70af90fd698a233a518aa5d07e595d983b8c0526c8f7fb8787604051610cf0929190612582565b60405180910390a46106048160008787878761166d565b8151835114610d285760405162461bcd60e51b815260040161044990612522565b6001600160a01b038416610d4e5760405162461bcd60e51b8152600401610449906125b0565b33610d5d81878787878761165f565b60005b8451811015610e46576000858281518110610d7d57610d7d612453565b602002602001015190506000858381518110610d9b57610d9b612453565b60209081029190910181015160008481526002835260408082206001600160a01b038e168352909352919091205490915081811015610dec5760405162461bcd60e51b8152600401610449906125f5565b60008381526002602090815260408083206001600160a01b038e8116855292528083208585039055908b16825281208054849290610e2b90849061256a565b9250508190555050505080610e3f9061247f565b9050610d60565b50846001600160a01b0316866001600160a01b0316826001600160a01b03167f4a39dc06d4c0dbc64b70af90fd698a233a518aa5d07e595d983b8c0526c8f7fb8787604051610e96929190612582565b60405180910390a4610eac81878787878761166d565b505050505050565b610ebe81336117c8565b50565b610ecb8282610ad3565b60008281526001602052604090206106309082610b57565b610eed828261182c565b60008281526001602052604090206106309082611891565b60055460ff16610f4e5760405162461bcd60e51b815260206004820152601460248201527314185d5cd8589b194e881b9bdd081c185d5cd95960621b6044820152606401610449565b6005805460ff191690557f5db9ee0a495bf2e6ff9c91a7834c1ba4fdd244a5e8aa4e537bd38aeae4b073aa335b6040516001600160a01b03909116815260200160405180910390a1565b6001600160a01b038316610fbe5760405162461bcd60e51b81526004016104499061263f565b8051825114610fdf5760405162461bcd60e51b815260040161044990612522565b60003390506110028185600086866040518060200160405280600081525061165f565b60005b83518110156110ca57600084828151811061102257611022612453565b60200260200101519050600084838151811061104057611040612453565b60209081029190910181015160008481526002835260408082206001600160a01b038c1683529093529190912054909150818110156110915760405162461bcd60e51b815260040161044990612682565b60009283526002602090815260408085206001600160a01b038b16865290915290922091039055806110c28161247f565b915050611005565b5060006001600160a01b0316846001600160a01b0316826001600160a01b03167f4a39dc06d4c0dbc64b70af90fd698a233a518aa5d07e595d983b8c0526c8f7fb868660405161111b929190612582565b60405180910390a460408051602081019091526000905261056e565b6001600160a01b03841661115d5760405162461bcd60e51b8152600401610449906124e1565b336000611169856118a6565b90506000611176856118a6565b90506111878360008985858961165f565b60008681526002602090815260408083206001600160a01b038b168452909152812080548792906111b990849061256a565b909155505060408051878152602081018790526001600160a01b03808a1692600092918716917fc3d58168c5ae7397731d063d5bbf3d657854427343f4c083240f7aacaa2d0f62910160405180910390a4611219836000898989896118f1565b50505050505050565b60055460ff16156112685760405162461bcd60e51b815260206004820152601060248201526f14185d5cd8589b194e881c185d5cd95960821b6044820152606401610449565b6005805460ff191660011790557f62e78cea01bee320cd4e420270b5ea74000d11b0c9f74754ebdbfc544b05a258610f7b3390565b60006109d483836119ac565b816001600160a01b0316836001600160a01b03160361131c5760405162461bcd60e51b815260206004820152602960248201527f455243313135353a2073657474696e6720617070726f76616c20737461747573604482015268103337b91039b2b63360b91b6064820152608401610449565b6001600160a01b03838116600081815260036020908152604080832094871680845294825291829020805460ff191686151590811790915591519182527f17307eab39ab6107e8899845ad3d59bd9653f200f220920489ca2b5937696c31910160405180910390a3505050565b6000610477825490565b6001600160a01b0384166113b95760405162461bcd60e51b8152600401610449906125b0565b3360006113c5856118a6565b905060006113d2856118a6565b90506113e283898985858961165f565b60008681526002602090815260408083206001600160a01b038c168452909152902054858110156114255760405162461bcd60e51b8152600401610449906125f5565b60008781526002602090815260408083206001600160a01b038d8116855292528083208985039055908a1682528120805488929061146490849061256a565b909155505060408051888152602081018890526001600160a01b03808b16928c821692918816917fc3d58168c5ae7397731d063d5bbf3d657854427343f4c083240f7aacaa2d0f62910160405180910390a46114c4848a8a8a8a8a6118f1565b505050505050505050565b6001600160a01b0383166114f55760405162461bcd60e51b81526004016104499061263f565b336000611501846118a6565b9050600061150e846118a6565b905061152e8387600085856040518060200160405280600081525061165f565b60008581526002602090815260408083206001600160a01b038a168452909152902054848110156115715760405162461bcd60e51b815260040161044990612682565b60008681526002602090815260408083206001600160a01b038b81168086529184528285208a8703905582518b81529384018a90529092908816917fc3d58168c5ae7397731d063d5bbf3d657854427343f4c083240f7aacaa2d0f62910160405180910390a4604080516020810190915260009052611219565b600081815260018301602052604081205461163257508154600181810184556000848152602080822090930184905584548482528286019093526040902091909155610477565b506000610477565b60006001600160e01b03198216635a05180f60e01b14806104775750610477826119d6565b610eac868686868686611a0b565b6001600160a01b0384163b15610eac5760405163bc197c8160e01b81526001600160a01b0385169063bc197c81906116b190899089908890889088906004016126c6565b6020604051808303816000875af19250505080156116ec575060408051601f3d908101601f191682019092526116e991810190612724565b60015b611798576116f8612741565b806308c379a003611731575061170c61275d565b806117175750611733565b8060405162461bcd60e51b81526004016104499190611dec565b505b60405162461bcd60e51b815260206004820152603460248201527f455243313135353a207472616e7366657220746f206e6f6e20455243313135356044820152732932b1b2b4bb32b91034b6b83632b6b2b73a32b960611b6064820152608401610449565b6001600160e01b0319811663bc197c8160e01b146112195760405162461bcd60e51b8152600401610449906127e7565b6117d282826109db565b6106af576117ea816001600160a01b03166014611a73565b6117f5836020611a73565b60405160200161180692919061282f565b60408051601f198184030181529082905262461bcd60e51b825261044991600401611dec565b61183682826109db565b156106af576000828152602081815260408083206001600160a01b0385168085529252808320805460ff1916905551339285917ff6391f5c32d9c69d2a47ea670b442974b53935d1edc7fd64eb21e047a839171b9190a45050565b60006109d4836001600160a01b038416611c0f565b604080516001808252818301909252606091600091906020808301908036833701905050905082816000815181106118e0576118e0612453565b602090810291909101015292915050565b6001600160a01b0384163b15610eac5760405163f23a6e6160e01b81526001600160a01b0385169063f23a6e619061193590899089908890889088906004016128a4565b6020604051808303816000875af1925050508015611970575060408051601f3d908101601f1916820190925261196d91810190612724565b60015b61197c576116f8612741565b6001600160e01b0319811663f23a6e6160e01b146112195760405162461bcd60e51b8152600401610449906127e7565b60008260000182815481106119c3576119c3612453565b9060005260206000200154905092915050565b60006001600160e01b03198216637965db0b60e01b148061047757506301ffc9a760e01b6001600160e01b0319831614610477565b60055460ff1615610eac5760405162461bcd60e51b815260206004820152602c60248201527f455243313135355061757361626c653a20746f6b656e207472616e736665722060448201526b1dda1a5b19481c185d5cd95960a21b6064820152608401610449565b60606000611a828360026128e9565b611a8d90600261256a565b67ffffffffffffffff811115611aa557611aa5611dff565b6040519080825280601f01601f191660200182016040528015611acf576020820181803683370190505b509050600360fc1b81600081518110611aea57611aea612453565b60200101906001600160f81b031916908160001a905350600f60fb1b81600181518110611b1957611b19612453565b60200101906001600160f81b031916908160001a9053506000611b3d8460026128e9565b611b4890600161256a565b90505b6001811115611bc0576f181899199a1a9b1b9c1cb0b131b232b360811b85600f1660108110611b7c57611b7c612453565b1a60f81b828281518110611b9257611b92612453565b60200101906001600160f81b031916908160001a90535060049490941c93611bb981612908565b9050611b4b565b5083156109d45760405162461bcd60e51b815260206004820181905260248201527f537472696e67733a20686578206c656e67746820696e73756666696369656e746044820152606401610449565b60008181526001830160205260408120548015611cf8576000611c3360018361291f565b8554909150600090611c479060019061291f565b9050818114611cac576000866000018281548110611c6757611c67612453565b9060005260206000200154905080876000018481548110611c8a57611c8a612453565b6000918252602080832090910192909255918252600188019052604090208390555b8554869080611cbd57611cbd612936565b600190038181906000526020600020016000905590558560010160008681526020019081526020016000206000905560019350505050610477565b6000915050610477565b80356001600160a01b0381168114611d1957600080fd5b919050565b60008060408385031215611d3157600080fd5b611d3a83611d02565b946020939093013593505050565b6001600160e01b031981168114610ebe57600080fd5b600060208284031215611d7057600080fd5b81356109d481611d48565b600060208284031215611d8d57600080fd5b5035919050565b60005b83811015611daf578181015183820152602001611d97565b8381111561056e5750506000910152565b60008151808452611dd8816020860160208601611d94565b601f01601f19169290920160200192915050565b6020815260006109d46020830184611dc0565b634e487b7160e01b600052604160045260246000fd5b601f8201601f1916810167ffffffffffffffff81118282101715611e3b57611e3b611dff565b6040525050565b600067ffffffffffffffff821115611e5c57611e5c611dff565b5060051b60200190565b600082601f830112611e7757600080fd5b81356020611e8482611e42565b604051611e918282611e15565b83815260059390931b8501820192828101915086841115611eb157600080fd5b8286015b84811015611ecc5780358352918301918301611eb5565b509695505050505050565b600082601f830112611ee857600080fd5b813567ffffffffffffffff811115611f0257611f02611dff565b604051611f19601f8301601f191660200182611e15565b818152846020838601011115611f2e57600080fd5b816020850160208301376000918101602001919091529392505050565b60008060008060808587031215611f6157600080fd5b611f6a85611d02565b9350602085013567ffffffffffffffff80821115611f8757600080fd5b611f9388838901611e66565b94506040870135915080821115611fa957600080fd5b611fb588838901611e66565b93506060870135915080821115611fcb57600080fd5b50611fd887828801611ed7565b91505092959194509250565b600080600080600060a08688031215611ffc57600080fd5b61200586611d02565b945061201360208701611d02565b9350604086013567ffffffffffffffff8082111561203057600080fd5b61203c89838a01611e66565b9450606088013591508082111561205257600080fd5b61205e89838a01611e66565b9350608088013591508082111561207457600080fd5b5061208188828901611ed7565b9150509295509295909350565b600080604083850312156120a157600080fd5b823591506120b160208401611d02565b90509250929050565b600080604083850312156120cd57600080fd5b823567ffffffffffffffff808211156120e557600080fd5b818501915085601f8301126120f957600080fd5b8135602061210682611e42565b6040516121138282611e15565b83815260059390931b850182019282810191508984111561213357600080fd5b948201945b838610156121585761214986611d02565b82529482019490820190612138565b9650508601359250508082111561216e57600080fd5b5061217b85828601611e66565b9150509250929050565b600081518084526020808501945080840160005b838110156121b557815187529582019590820190600101612199565b509495945050505050565b6020815260006109d46020830184612185565b6000806000606084860312156121e857600080fd5b6121f184611d02565b9250602084013567ffffffffffffffff8082111561220e57600080fd5b61221a87838801611e66565b9350604086013591508082111561223057600080fd5b5061223d86828701611e66565b9150509250925092565b6000806000806080858703121561225d57600080fd5b61226685611d02565b93506020850135925060408501359150606085013567ffffffffffffffff81111561229057600080fd5b611fd887828801611ed7565b600080604083850312156122af57600080fd5b50508035926020909101359150565b600080604083850312156122d157600080fd5b6122da83611d02565b9150602083013580151581146122ef57600080fd5b809150509250929050565b6000806040838503121561230d57600080fd5b61231683611d02565b91506120b160208401611d02565b600080600080600060a0868803121561233c57600080fd5b61234586611d02565b945061235360208701611d02565b93506040860135925060608601359150608086013567ffffffffffffffff81111561237d57600080fd5b61208188828901611ed7565b60008060006060848603121561239e57600080fd5b6123a784611d02565b95602085013595506040909401359392505050565b600181811c908216806123d057607f821691505b6020821081036123f057634e487b7160e01b600052602260045260246000fd5b50919050565b60208082526038908201527f455243313135355072657365744d696e7465725061757365723a206d7573742060408201527f68617665206d696e74657220726f6c6520746f206d696e740000000000000000606082015260800190565b634e487b7160e01b600052603260045260246000fd5b634e487b7160e01b600052601160045260246000fd5b60006001820161249157612491612469565b5060010190565b60208082526029908201527f455243313135353a2063616c6c6572206973206e6f74206f776e6572206e6f7260408201526808185c1c1c9bdd995960ba1b606082015260800190565b60208082526021908201527f455243313135353a206d696e7420746f20746865207a65726f206164647265736040820152607360f81b606082015260800190565b60208082526028908201527f455243313135353a2069647320616e6420616d6f756e7473206c656e677468206040820152670dad2e6dac2e8c6d60c31b606082015260800190565b6000821982111561257d5761257d612469565b500190565b6040815260006125956040830185612185565b82810360208401526125a78185612185565b95945050505050565b60208082526025908201527f455243313135353a207472616e7366657220746f20746865207a65726f206164604082015264647265737360d81b606082015260800190565b6020808252602a908201527f455243313135353a20696e73756666696369656e742062616c616e636520666f60408201526939103a3930b739b332b960b11b606082015260800190565b60208082526023908201527f455243313135353a206275726e2066726f6d20746865207a65726f206164647260408201526265737360e81b606082015260800190565b60208082526024908201527f455243313135353a206275726e20616d6f756e7420657863656564732062616c604082015263616e636560e01b606082015260800190565b6001600160a01b0386811682528516602082015260a0604082018190526000906126f290830186612185565b82810360608401526127048186612185565b905082810360808401526127188185611dc0565b98975050505050505050565b60006020828403121561273657600080fd5b81516109d481611d48565b600060033d111561275a5760046000803e5060005160e01c5b90565b600060443d101561276b5790565b6040516003193d81016004833e81513d67ffffffffffffffff816024840111818411171561279b57505050505090565b82850191508151818111156127b35750505050505090565b843d87010160208285010111156127cd5750505050505090565b6127dc60208286010187611e15565b509095945050505050565b60208082526028908201527f455243313135353a204552433131353552656365697665722072656a656374656040820152676420746f6b656e7360c01b606082015260800190565b7f416363657373436f6e74726f6c3a206163636f756e7420000000000000000000815260008351612867816017850160208801611d94565b7001034b99036b4b9b9b4b733903937b6329607d1b6017918401918201528351612898816028840160208801611d94565b01602801949350505050565b6001600160a01b03868116825285166020820152604081018490526060810183905260a0608082018190526000906128de90830184611dc0565b979650505050505050565b600081600019048311821515161561290357612903612469565b500290565b60008161291757612917612469565b506000190190565b60008282101561293157612931612469565b500390565b634e487b7160e01b600052603160045260246000fdfea264697066735822122012e200d57eb777964fb88886e187f60f8be9334d0916ca7772f30759e290d20964736f6c634300080e0033",
  "immutableReferences": {},
  "source": "// SPDX-License-Identifier: MIT\n// OpenZeppelin Contracts (last updated v4.5.0) (token/ERC1155/presets/ERC1155PresetMinterPauser.sol)\n\npragma solidity ^0.8.0;\n\nimport \"../ERC1155.sol\";\nimport \"../extensions/ERC1155Burnable.sol\";\nimport \"../extensions/ERC1155Pausable.sol\";\nimport \"../../../access/AccessControlEnumerable.sol\";\nimport \"../../../utils/Context.sol\";\n\n/**\n * @dev {ERC1155} token, including:\n *\n *  - ability for holders to burn (destroy) their tokens\n *  - a minter role that allows for token minting (creation)\n *  - a pauser role that allows to stop all token transfers\n *\n * This contract uses {AccessControl} to lock permissioned functions using the\n * different roles - head to its documentation for details.\n *\n * The account that deploys the contract will be granted the minter and pauser\n * roles, as well as the default admin role, which will let it grant both minter\n * and pauser roles to other accounts.\n *\n * _Deprecated in favor of https://wizard.openzeppelin.com/[Contracts Wizard]._\n */\ncontract ERC1155PresetMinterPauser is Context, AccessControlEnumerable, ERC1155Burnable, ERC1155Pausable {\n    bytes32 public constant MINTER_ROLE = keccak256(\"MINTER_ROLE\");\n    bytes32 public constant PAUSER_ROLE = keccak256(\"PAUSER_ROLE\");\n\n    /**\n     * @dev Grants `DEFAULT_ADMIN_ROLE`, `MINTER_ROLE`, and `PAUSER_ROLE` to the account that\n     * deploys the contract.\n     */\n    constructor(string memory uri) ERC1155(uri) {\n        _setupRole(DEFAULT_ADMIN_ROLE, _msgSender());\n\n        _setupRole(MINTER_ROLE, _msgSender());\n        _setupRole(PAUSER_ROLE, _msgSender());\n    }\n\n    /**\n     * @dev Creates `amount` new tokens for `to`, of token type `id`.\n     *\n     * See {ERC1155-_mint}.\n     *\n     * Requirements:\n     *\n     * - the caller must have the `MINTER_ROLE`.\n     */\n    function mint(\n        address to,\n        uint256 id,\n        uint256 amount,\n        bytes memory data\n    ) public virtual {\n        require(hasRole(MINTER_ROLE, _msgSender()), \"ERC1155PresetMinterPauser: must have minter role to mint\");\n\n        _mint(to, id, amount, data);\n    }\n\n    /**\n     * @dev xref:ROOT:erc1155.adoc#batch-operations[Batched] variant of {mint}.\n     */\n    function mintBatch(\n        address to,\n        uint256[] memory ids,\n        uint256[] memory amounts,\n        bytes memory data\n    ) public virtual {\n        require(hasRole(MINTER_ROLE, _msgSender()), \"ERC1155PresetMinterPauser: must have minter role to mint\");\n\n        _mintBatch(to, ids, amounts, data);\n    }\n\n    /**\n     * @dev Pauses all token transfers.\n     *\n     * See {ERC1155Pausable} and {Pausable-_pause}.\n     *\n     * Requirements:\n     *\n     * - the caller must have the `PAUSER_ROLE`.\n     */\n    function pause() public virtual {\n        require(hasRole(PAUSER_ROLE, _msgSender()), \"ERC1155PresetMinterPauser: must have pauser role to pause\");\n        _pause();\n    }\n\n    /**\n     * @dev Unpauses all token transfers.\n     *\n     * See {ERC1155Pausable} and {Pausable-_unpause}.\n     *\n     * Requirements:\n     *\n     * - the caller must have the `PAUSER_ROLE`.\n     */\n    function unpause() public virtual {\n        require(hasRole(PAUSER_ROLE, _msgSender()), \"ERC1155PresetMinterPauser: must have pauser role to unpause\");\n        _unpause();\n    }\n\n    /**\n     * @dev See {IERC165-supportsInterface}.\n     */\n    function supportsInterface(bytes4 interfaceId)\n        public\n        view\n        virtual\n        override(AccessControlEnumerable, ERC1155)\n        returns (bool)\n    {\n        return super.supportsInterface(interfaceId);\n    }\n\n    function _beforeTokenTransfer(\n        address operator,\n        address from,\n        address to,\n        uint256[] memory ids,\n        uint256[] memory amounts,\n        bytes memory data\n    ) internal virtual override(ERC1155, ERC1155Pausable) {\n        super._beforeTokenTransfer(operator, from, to, ids, amounts, data);\n    }\n}\n",
  "sourcePath": "/Users/macbookpro/Projects/NFT/NFTExchange/contracts/openzeppelin-solidity/contracts/token/ERC1155/presets/ERC1155PresetMinterPauser.sol",
  "compiler": {
    "name": "solc",
    "version": "0.8.14+commit.80d49f37.Emscripten.clang"
  },
  "schemaVersion": "3.4.7",
  "updatedAt": "2022-06-13T13:59:54.827Z",
  "devdoc": {
    "details": "{ERC1155} token, including:  - ability for holders to burn (destroy) their tokens  - a minter role that allows for token minting (creation)  - a pauser role that allows to stop all token transfers This contract uses {AccessControl} to lock permissioned functions using the different roles - head to its documentation for details. The account that deploys the contract will be granted the minter and pauser roles, as well as the default admin role, which will let it grant both minter and pauser roles to other accounts. _Deprecated in favor of https://wizard.openzeppelin.com/[Contracts Wizard]._",
    "kind": "dev",
    "methods": {
      "balanceOf(address,uint256)": {
        "details": "See {IERC1155-balanceOf}. Requirements: - `account` cannot be the zero address."
      },
      "balanceOfBatch(address[],uint256[])": {
        "details": "See {IERC1155-balanceOfBatch}. Requirements: - `accounts` and `ids` must have the same length."
      },
      "constructor": {
        "details": "Grants `DEFAULT_ADMIN_ROLE`, `MINTER_ROLE`, and `PAUSER_ROLE` to the account that deploys the contract."
      },
      "getRoleAdmin(bytes32)": {
        "details": "Returns the admin role that controls `role`. See {grantRole} and {revokeRole}. To change a role's admin, use {_setRoleAdmin}."
      },
      "getRoleMember(bytes32,uint256)": {
        "details": "Returns one of the accounts that have `role`. `index` must be a value between 0 and {getRoleMemberCount}, non-inclusive. Role bearers are not sorted in any particular way, and their ordering may change at any point. WARNING: When using {getRoleMember} and {getRoleMemberCount}, make sure you perform all queries on the same block. See the following https://forum.openzeppelin.com/t/iterating-over-elements-on-enumerableset-in-openzeppelin-contracts/2296[forum post] for more information."
      },
      "getRoleMemberCount(bytes32)": {
        "details": "Returns the number of accounts that have `role`. Can be used together with {getRoleMember} to enumerate all bearers of a role."
      },
      "grantRole(bytes32,address)": {
        "details": "Grants `role` to `account`. If `account` had not been already granted `role`, emits a {RoleGranted} event. Requirements: - the caller must have ``role``'s admin role."
      },
      "hasRole(bytes32,address)": {
        "details": "Returns `true` if `account` has been granted `role`."
      },
      "isApprovedForAll(address,address)": {
        "details": "See {IERC1155-isApprovedForAll}."
      },
      "mint(address,uint256,uint256,bytes)": {
        "details": "Creates `amount` new tokens for `to`, of token type `id`. See {ERC1155-_mint}. Requirements: - the caller must have the `MINTER_ROLE`."
      },
      "mintBatch(address,uint256[],uint256[],bytes)": {
        "details": "xref:ROOT:erc1155.adoc#batch-operations[Batched] variant of {mint}."
      },
      "pause()": {
        "details": "Pauses all token transfers. See {ERC1155Pausable} and {Pausable-_pause}. Requirements: - the caller must have the `PAUSER_ROLE`."
      },
      "paused()": {
        "details": "Returns true if the contract is paused, and false otherwise."
      },
      "renounceRole(bytes32,address)": {
        "details": "Revokes `role` from the calling account. Roles are often managed via {grantRole} and {revokeRole}: this function's purpose is to provide a mechanism for accounts to lose their privileges if they are compromised (such as when a trusted device is misplaced). If the calling account had been revoked `role`, emits a {RoleRevoked} event. Requirements: - the caller must be `account`."
      },
      "revokeRole(bytes32,address)": {
        "details": "Revokes `role` from `account`. If `account` had been granted `role`, emits a {RoleRevoked} event. Requirements: - the caller must have ``role``'s admin role."
      },
      "safeBatchTransferFrom(address,address,uint256[],uint256[],bytes)": {
        "details": "See {IERC1155-safeBatchTransferFrom}."
      },
      "safeTransferFrom(address,address,uint256,uint256,bytes)": {
        "details": "See {IERC1155-safeTransferFrom}."
      },
      "setApprovalForAll(address,bool)": {
        "details": "See {IERC1155-setApprovalForAll}."
      },
      "supportsInterface(bytes4)": {
        "details": "See {IERC165-supportsInterface}."
      },
      "unpause()": {
        "details": "Unpauses all token transfers. See {ERC1155Pausable} and {Pausable-_unpause}. Requirements: - the caller must have the `PAUSER_ROLE`."
      },
      "uri(uint256)": {
        "details": "See {IERC1155MetadataURI-uri}. This implementation returns the same URI for *all* token types. It relies on the token type ID substitution mechanism https://eips.ethereum.org/EIPS/eip-1155#metadata[defined in the EIP]. Clients calling this function must replace the `\\{id\\}` substring with the actual token type ID."
      }
    },
    "version": 1
  },
  "userdoc": {
    "kind": "user",
    "methods": {},
    "version": 1
  }
}