{
  "contractName": "ERC777",
  "abi": [
    {
      "inputs": [
        {
          "internalType": "string",
          "name": "name_",
          "type": "string"
        },
        {
          "internalType": "string",
          "name": "symbol_",
          "type": "string"
        },
        {
          "internalType": "address[]",
          "name": "defaultOperators_",
          "type": "address[]"
        }
      ],
      "stateMutability": "nonpayable",
      "type": "constructor"
    },
    {
      "anonymous": false,
      "inputs": [
        {
          "indexed": true,
          "internalType": "address",
          "name": "owner",
          "type": "address"
        },
        {
          "indexed": true,
          "internalType": "address",
          "name": "spender",
          "type": "address"
        },
        {
          "indexed": false,
          "internalType": "uint256",
          "name": "value",
          "type": "uint256"
        }
      ],
      "name": "Approval",
      "type": "event"
    },
    {
      "anonymous": false,
      "inputs": [
        {
          "indexed": true,
          "internalType": "address",
          "name": "operator",
          "type": "address"
        },
        {
          "indexed": true,
          "internalType": "address",
          "name": "tokenHolder",
          "type": "address"
        }
      ],
      "name": "AuthorizedOperator",
      "type": "event"
    },
    {
      "anonymous": false,
      "inputs": [
        {
          "indexed": true,
          "internalType": "address",
          "name": "operator",
          "type": "address"
        },
        {
          "indexed": true,
          "internalType": "address",
          "name": "from",
          "type": "address"
        },
        {
          "indexed": false,
          "internalType": "uint256",
          "name": "amount",
          "type": "uint256"
        },
        {
          "indexed": false,
          "internalType": "bytes",
          "name": "data",
          "type": "bytes"
        },
        {
          "indexed": false,
          "internalType": "bytes",
          "name": "operatorData",
          "type": "bytes"
        }
      ],
      "name": "Burned",
      "type": "event"
    },
    {
      "anonymous": false,
      "inputs": [
        {
          "indexed": true,
          "internalType": "address",
          "name": "operator",
          "type": "address"
        },
        {
          "indexed": true,
          "internalType": "address",
          "name": "to",
          "type": "address"
        },
        {
          "indexed": false,
          "internalType": "uint256",
          "name": "amount",
          "type": "uint256"
        },
        {
          "indexed": false,
          "internalType": "bytes",
          "name": "data",
          "type": "bytes"
        },
        {
          "indexed": false,
          "internalType": "bytes",
          "name": "operatorData",
          "type": "bytes"
        }
      ],
      "name": "Minted",
      "type": "event"
    },
    {
      "anonymous": false,
      "inputs": [
        {
          "indexed": true,
          "internalType": "address",
          "name": "operator",
          "type": "address"
        },
        {
          "indexed": true,
          "internalType": "address",
          "name": "tokenHolder",
          "type": "address"
        }
      ],
      "name": "RevokedOperator",
      "type": "event"
    },
    {
      "anonymous": false,
      "inputs": [
        {
          "indexed": true,
          "internalType": "address",
          "name": "operator",
          "type": "address"
        },
        {
          "indexed": true,
          "internalType": "address",
          "name": "from",
          "type": "address"
        },
        {
          "indexed": true,
          "internalType": "address",
          "name": "to",
          "type": "address"
        },
        {
          "indexed": false,
          "internalType": "uint256",
          "name": "amount",
          "type": "uint256"
        },
        {
          "indexed": false,
          "internalType": "bytes",
          "name": "data",
          "type": "bytes"
        },
        {
          "indexed": false,
          "internalType": "bytes",
          "name": "operatorData",
          "type": "bytes"
        }
      ],
      "name": "Sent",
      "type": "event"
    },
    {
      "anonymous": false,
      "inputs": [
        {
          "indexed": true,
          "internalType": "address",
          "name": "from",
          "type": "address"
        },
        {
          "indexed": true,
          "internalType": "address",
          "name": "to",
          "type": "address"
        },
        {
          "indexed": false,
          "internalType": "uint256",
          "name": "value",
          "type": "uint256"
        }
      ],
      "name": "Transfer",
      "type": "event"
    },
    {
      "inputs": [],
      "name": "name",
      "outputs": [
        {
          "internalType": "string",
          "name": "",
          "type": "string"
        }
      ],
      "stateMutability": "view",
      "type": "function"
    },
    {
      "inputs": [],
      "name": "symbol",
      "outputs": [
        {
          "internalType": "string",
          "name": "",
          "type": "string"
        }
      ],
      "stateMutability": "view",
      "type": "function"
    },
    {
      "inputs": [],
      "name": "decimals",
      "outputs": [
        {
          "internalType": "uint8",
          "name": "",
          "type": "uint8"
        }
      ],
      "stateMutability": "pure",
      "type": "function"
    },
    {
      "inputs": [],
      "name": "granularity",
      "outputs": [
        {
          "internalType": "uint256",
          "name": "",
          "type": "uint256"
        }
      ],
      "stateMutability": "view",
      "type": "function"
    },
    {
      "inputs": [],
      "name": "totalSupply",
      "outputs": [
        {
          "internalType": "uint256",
          "name": "",
          "type": "uint256"
        }
      ],
      "stateMutability": "view",
      "type": "function"
    },
    {
      "inputs": [
        {
          "internalType": "address",
          "name": "tokenHolder",
          "type": "address"
        }
      ],
      "name": "balanceOf",
      "outputs": [
        {
          "internalType": "uint256",
          "name": "",
          "type": "uint256"
        }
      ],
      "stateMutability": "view",
      "type": "function"
    },
    {
      "inputs": [
        {
          "internalType": "address",
          "name": "recipient",
          "type": "address"
        },
        {
          "internalType": "uint256",
          "name": "amount",
          "type": "uint256"
        },
        {
          "internalType": "bytes",
          "name": "data",
          "type": "bytes"
        }
      ],
      "name": "send",
      "outputs": [],
      "stateMutability": "nonpayable",
      "type": "function"
    },
    {
      "inputs": [
        {
          "internalType": "address",
          "name": "recipient",
          "type": "address"
        },
        {
          "internalType": "uint256",
          "name": "amount",
          "type": "uint256"
        }
      ],
      "name": "transfer",
      "outputs": [
        {
          "internalType": "bool",
          "name": "",
          "type": "bool"
        }
      ],
      "stateMutability": "nonpayable",
      "type": "function"
    },
    {
      "inputs": [
        {
          "internalType": "uint256",
          "name": "amount",
          "type": "uint256"
        },
        {
          "internalType": "bytes",
          "name": "data",
          "type": "bytes"
        }
      ],
      "name": "burn",
      "outputs": [],
      "stateMutability": "nonpayable",
      "type": "function"
    },
    {
      "inputs": [
        {
          "internalType": "address",
          "name": "operator",
          "type": "address"
        },
        {
          "internalType": "address",
          "name": "tokenHolder",
          "type": "address"
        }
      ],
      "name": "isOperatorFor",
      "outputs": [
        {
          "internalType": "bool",
          "name": "",
          "type": "bool"
        }
      ],
      "stateMutability": "view",
      "type": "function"
    },
    {
      "inputs": [
        {
          "internalType": "address",
          "name": "operator",
          "type": "address"
        }
      ],
      "name": "authorizeOperator",
      "outputs": [],
      "stateMutability": "nonpayable",
      "type": "function"
    },
    {
      "inputs": [
        {
          "internalType": "address",
          "name": "operator",
          "type": "address"
        }
      ],
      "name": "revokeOperator",
      "outputs": [],
      "stateMutability": "nonpayable",
      "type": "function"
    },
    {
      "inputs": [],
      "name": "defaultOperators",
      "outputs": [
        {
          "internalType": "address[]",
          "name": "",
          "type": "address[]"
        }
      ],
      "stateMutability": "view",
      "type": "function"
    },
    {
      "inputs": [
        {
          "internalType": "address",
          "name": "sender",
          "type": "address"
        },
        {
          "internalType": "address",
          "name": "recipient",
          "type": "address"
        },
        {
          "internalType": "uint256",
          "name": "amount",
          "type": "uint256"
        },
        {
          "internalType": "bytes",
          "name": "data",
          "type": "bytes"
        },
        {
          "internalType": "bytes",
          "name": "operatorData",
          "type": "bytes"
        }
      ],
      "name": "operatorSend",
      "outputs": [],
      "stateMutability": "nonpayable",
      "type": "function"
    },
    {
      "inputs": [
        {
          "internalType": "address",
          "name": "account",
          "type": "address"
        },
        {
          "internalType": "uint256",
          "name": "amount",
          "type": "uint256"
        },
        {
          "internalType": "bytes",
          "name": "data",
          "type": "bytes"
        },
        {
          "internalType": "bytes",
          "name": "operatorData",
          "type": "bytes"
        }
      ],
      "name": "operatorBurn",
      "outputs": [],
      "stateMutability": "nonpayable",
      "type": "function"
    },
    {
      "inputs": [
        {
          "internalType": "address",
          "name": "holder",
          "type": "address"
        },
        {
          "internalType": "address",
          "name": "spender",
          "type": "address"
        }
      ],
      "name": "allowance",
      "outputs": [
        {
          "internalType": "uint256",
          "name": "",
          "type": "uint256"
        }
      ],
      "stateMutability": "view",
      "type": "function"
    },
    {
      "inputs": [
        {
          "internalType": "address",
          "name": "spender",
          "type": "address"
        },
        {
          "internalType": "uint256",
          "name": "value",
          "type": "uint256"
        }
      ],
      "name": "approve",
      "outputs": [
        {
          "internalType": "bool",
          "name": "",
          "type": "bool"
        }
      ],
      "stateMutability": "nonpayable",
      "type": "function"
    },
    {
      "inputs": [
        {
          "internalType": "address",
          "name": "holder",
          "type": "address"
        },
        {
          "internalType": "address",
          "name": "recipient",
          "type": "address"
        },
        {
          "internalType": "uint256",
          "name": "amount",
          "type": "uint256"
        }
      ],
      "name": "transferFrom",
      "outputs": [
        {
          "internalType": "bool",
          "name": "",
          "type": "bool"
        }
      ],
      "stateMutability": "nonpayable",
      "type": "function"
    }
  ],
  "bytecode": "0x60806040523480156200001157600080fd5b5060405162001bab38038062001bab8339810160408190526200003491620003f1565b82516200004990600290602086019062000215565b5081516200005f90600390602085019062000215565b50805162000075906004906020840190620002a4565b5060005b8151811015620000e5576001600560008484815181106200009e576200009e62000508565b6020908102919091018101516001600160a01b03168252810191909152604001600020805460ff191691151591909117905580620000dc816200051e565b91505062000079565b506040516329965a1d60e01b815230600482018190527fac7fbab5f54a3ca8194167523c6753bfeb96a445279294b6125b68cce217705460248301526044820152731820a4b7618bde71dce8cdc73aab6c95905fad24906329965a1d90606401600060405180830381600087803b1580156200016057600080fd5b505af115801562000175573d6000803e3d6000fd5b50506040516329965a1d60e01b815230600482018190527faea199e31a596269b42cdafd93407f14436db6e4cad65417994c2eb37381e05a60248301526044820152731820a4b7618bde71dce8cdc73aab6c95905fad2492506329965a1d9150606401600060405180830381600087803b158015620001f357600080fd5b505af115801562000208573d6000803e3d6000fd5b5050505050505062000582565b828054620002239062000546565b90600052602060002090601f01602090048101928262000247576000855562000292565b82601f106200026257805160ff191683800117855562000292565b8280016001018555821562000292579182015b828111156200029257825182559160200191906001019062000275565b50620002a0929150620002fc565b5090565b82805482825590600052602060002090810192821562000292579160200282015b828111156200029257825182546001600160a01b0319166001600160a01b03909116178255602090920191600190910190620002c5565b5b80821115620002a05760008155600101620002fd565b634e487b7160e01b600052604160045260246000fd5b604051601f8201601f191681016001600160401b038111828210171562000354576200035462000313565b604052919050565b600082601f8301126200036e57600080fd5b81516001600160401b038111156200038a576200038a62000313565b6020620003a0601f8301601f1916820162000329565b8281528582848701011115620003b557600080fd5b60005b83811015620003d5578581018301518282018401528201620003b8565b83811115620003e75760008385840101525b5095945050505050565b6000806000606084860312156200040757600080fd5b83516001600160401b03808211156200041f57600080fd5b6200042d878388016200035c565b94506020915081860151818111156200044557600080fd5b62000453888289016200035c565b9450506040860151818111156200046957600080fd5b8601601f810188136200047b57600080fd5b80518281111562000490576200049062000313565b8060051b9250620004a384840162000329565b818152928201840192848101908a851115620004be57600080fd5b928501925b84841015620004f857835192506001600160a01b0383168314620004e75760008081fd5b8282529285019290850190620004c3565b8096505050505050509250925092565b634e487b7160e01b600052603260045260246000fd5b6000600182016200053f57634e487b7160e01b600052601160045260246000fd5b5060010190565b600181811c908216806200055b57607f821691505b6020821081036200057c57634e487b7160e01b600052602260045260246000fd5b50919050565b61161980620005926000396000f3fe608060405234801561001057600080fd5b50600436106101165760003560e01c8063959b8c3f116100a2578063d95b637111610071578063d95b63711461022b578063dd62ed3e1461023e578063fad8b32a14610277578063fc673c4f1461028a578063fe9d93031461029d57600080fd5b8063959b8c3f146101ea57806395d89b41146101fd5780639bd9bbc614610205578063a9059cbb1461021857600080fd5b806323b872dd116100e957806323b872dd14610183578063313ce56714610196578063556f0dc7146101a557806362ad1b83146101ac57806370a08231146101c157600080fd5b806306e485381461011b57806306fdde0314610139578063095ea7b31461014e57806318160ddd14610171575b600080fd5b6101236102b0565b604051610130919061108e565b60405180910390f35b610141610312565b6040516101309190611128565b61016161015c366004611153565b61039b565b6040519015158152602001610130565b6001545b604051908152602001610130565b61016161019136600461117f565b6103b3565b60405160128152602001610130565b6001610175565b6101bf6101ba366004611263565b6103f9565b005b6101756101cf3660046112f6565b6001600160a01b031660009081526020819052604090205490565b6101bf6101f83660046112f6565b61043e565b61014161055b565b6101bf610213366004611313565b61056a565b610161610226366004611153565b61058d565b61016161023936600461136c565b6105c5565b61017561024c36600461136c565b6001600160a01b03918216600090815260086020908152604080832093909416825291909152205490565b6101bf6102853660046112f6565b610667565b6101bf6102983660046113a5565b610782565b6101bf6102ab366004611425565b6107ba565b6060600480548060200260200160405190810160405280929190818152602001828054801561030857602002820191906000526020600020905b81546001600160a01b031681526001909101906020018083116102ea575b5050505050905090565b6060600280546103219061146c565b80601f016020809104026020016040519081016040528092919081815260200182805461034d9061146c565b80156103085780601f1061036f57610100808354040283529160200191610308565b820191906000526020600020905b81548152906001019060200180831161037d57509395945050505050565b6000336103a98185856107d9565b5060019392505050565b6000336103c1858285610900565b6103ee8585856040518060200160405280600081525060405180602001604052806000815250600061098c565b506001949350505050565b61040333866105c5565b6104285760405162461bcd60e51b815260040161041f906114a6565b60405180910390fd5b6104378585858585600161098c565b5050505050565b6001600160a01b03811633036104a25760405162461bcd60e51b8152602060048201526024808201527f4552433737373a20617574686f72697a696e672073656c66206173206f70657260448201526330ba37b960e11b606482015260840161041f565b6001600160a01b03811660009081526005602052604090205460ff16156104f3573360009081526007602090815260408083206001600160a01b03851684529091529020805460ff19169055610522565b3360009081526006602090815260408083206001600160a01b03851684529091529020805460ff191660011790555b60405133906001600160a01b038316907ff4caeb2d6ca8932a215a353d0703c326ec2d81fc68170f320eb2ab49e9df61f990600090a350565b6060600380546103219061146c565b6105883384848460405180602001604052806000815250600161098c565b505050565b60006105bc3384846040518060200160405280600081525060405180602001604052806000815250600061098c565b50600192915050565b6000816001600160a01b0316836001600160a01b0316148061063057506001600160a01b03831660009081526005602052604090205460ff16801561063057506001600160a01b0380831660009081526007602090815260408083209387168352929052205460ff16155b8061066057506001600160a01b0380831660009081526006602090815260408083209387168352929052205460ff165b9392505050565b336001600160a01b038216036106c95760405162461bcd60e51b815260206004820152602160248201527f4552433737373a207265766f6b696e672073656c66206173206f70657261746f6044820152603960f91b606482015260840161041f565b6001600160a01b03811660009081526005602052604090205460ff161561071d573360009081526007602090815260408083206001600160a01b03851684529091529020805460ff19166001179055610749565b3360009081526006602090815260408083206001600160a01b03851684529091529020805460ff191690555b60405133906001600160a01b038316907f50546e66e5f44d728365dc3908c63bc5cfeeab470722c1677e3073a6ac294aa190600090a350565b61078c33856105c5565b6107a85760405162461bcd60e51b815260040161041f906114a6565b6107b484848484610a88565b50505050565b6107d533838360405180602001604052806000815250610a88565b5050565b6001600160a01b03831661083d5760405162461bcd60e51b815260206004820152602560248201527f4552433737373a20617070726f76652066726f6d20746865207a65726f206164604482015264647265737360d81b606482015260840161041f565b6001600160a01b03821661089f5760405162461bcd60e51b815260206004820152602360248201527f4552433737373a20617070726f766520746f20746865207a65726f206164647260448201526265737360e81b606482015260840161041f565b6001600160a01b0383811660008181526008602090815260408083209487168084529482529182902085905590518481527f8c5be1e5ebec7d5bd14f71427d1e84f3dd0314c0f7b2291e5b200ac8c7c3b925910160405180910390a3505050565b6001600160a01b0383811660009081526008602090815260408083209386168352929052205460001981146107b4578181101561097f5760405162461bcd60e51b815260206004820152601e60248201527f4552433737373a20696e73756666696369656e7420616c6c6f77616e63650000604482015260640161041f565b6107b484848484036107d9565b6001600160a01b0386166109f15760405162461bcd60e51b815260206004820152602660248201527f4552433737373a207472616e736665722066726f6d20746865207a65726f206160448201526564647265737360d01b606482015260840161041f565b6001600160a01b038516610a535760405162461bcd60e51b8152602060048201526024808201527f4552433737373a207472616e7366657220746f20746865207a65726f206164646044820152637265737360e01b606482015260840161041f565b33610a62818888888888610c3c565b610a70818888888888610d63565b610a7f81888888888888610ec9565b50505050505050565b6001600160a01b038416610ae95760405162461bcd60e51b815260206004820152602260248201527f4552433737373a206275726e2066726f6d20746865207a65726f206164647265604482015261737360f01b606482015260840161041f565b33610af981866000878787610c3c565b6001600160a01b03851660009081526020819052604090205484811015610b6e5760405162461bcd60e51b815260206004820152602360248201527f4552433737373a206275726e20616d6f756e7420657863656564732062616c616044820152626e636560e81b606482015260840161041f565b6001600160a01b0386166000908152602081905260408120868303905560018054879290610b9d908490611508565b92505081905550856001600160a01b0316826001600160a01b03167fa78a9be3a7b862d26933ad85fb11d80ef66b8f972d7cbba06621d583943a4098878787604051610beb9392919061151f565b60405180910390a36040518581526000906001600160a01b038816907fddf252ad1be2c89b69c2b068fc378daa952ba7f163c4a11628f55a4df523b3ef9060200160405180910390a3505050505050565b60405163555ddc6560e11b81526001600160a01b03861660048201527f29ddb589b1fb5fc7cf394961c1adf5f8c6454761adf795e67fe149f658abe8956024820152600090731820a4b7618bde71dce8cdc73aab6c95905fad249063aabbb8ca90604401602060405180830381865afa158015610cbd573d6000803e3d6000fd5b505050506040513d601f19601f82011682018060405250810190610ce19190611554565b90506001600160a01b03811615610a7f57604051633ad5cbc160e11b81526001600160a01b038216906375ab978290610d28908a908a908a908a908a908a90600401611571565b600060405180830381600087803b158015610d4257600080fd5b505af1158015610d56573d6000803e3d6000fd5b5050505050505050505050565b6001600160a01b03851660009081526020819052604090205483811015610ddc5760405162461bcd60e51b815260206004820152602760248201527f4552433737373a207472616e7366657220616d6f756e7420657863656564732060448201526662616c616e636560c81b606482015260840161041f565b6001600160a01b03808716600090815260208190526040808220878503905591871681529081208054869290610e139084906115cb565b92505081905550846001600160a01b0316866001600160a01b0316886001600160a01b03167f06b541ddaa720db2b10a4d0cdac39b8d360425fc073085fac19bc82614677987878787604051610e6b9392919061151f565b60405180910390a4846001600160a01b0316866001600160a01b03167fddf252ad1be2c89b69c2b068fc378daa952ba7f163c4a11628f55a4df523b3ef86604051610eb891815260200190565b60405180910390a350505050505050565b60405163555ddc6560e11b81526001600160a01b03861660048201527fb281fc8c12954d22544db45de3159a39272895b169a852b314f9cc762e44c53b6024820152600090731820a4b7618bde71dce8cdc73aab6c95905fad249063aabbb8ca90604401602060405180830381865afa158015610f4a573d6000803e3d6000fd5b505050506040513d601f19601f82011682018060405250810190610f6e9190611554565b90506001600160a01b03811615610fea576040516223de2960e01b81526001600160a01b038216906223de2990610fb3908b908b908b908b908b908b90600401611571565b600060405180830381600087803b158015610fcd57600080fd5b505af1158015610fe1573d6000803e3d6000fd5b50505050611084565b8115611084576001600160a01b0386163b156110845760405162461bcd60e51b815260206004820152604d60248201527f4552433737373a20746f6b656e20726563697069656e7420636f6e747261637460448201527f20686173206e6f20696d706c656d656e74657220666f7220455243373737546f60648201526c1ad95b9cd49958da5c1a595b9d609a1b608482015260a40161041f565b5050505050505050565b6020808252825182820181905260009190848201906040850190845b818110156110cf5783516001600160a01b0316835292840192918401916001016110aa565b50909695505050505050565b6000815180845260005b81811015611101576020818501810151868301820152016110e5565b81811115611113576000602083870101525b50601f01601f19169290920160200192915050565b60208152600061066060208301846110db565b6001600160a01b038116811461115057600080fd5b50565b6000806040838503121561116657600080fd5b82356111718161113b565b946020939093013593505050565b60008060006060848603121561119457600080fd5b833561119f8161113b565b925060208401356111af8161113b565b929592945050506040919091013590565b634e487b7160e01b600052604160045260246000fd5b600082601f8301126111e757600080fd5b813567ffffffffffffffff80821115611202576112026111c0565b604051601f8301601f19908116603f0116810190828211818310171561122a5761122a6111c0565b8160405283815286602085880101111561124357600080fd5b836020870160208301376000602085830101528094505050505092915050565b600080600080600060a0868803121561127b57600080fd5b85356112868161113b565b945060208601356112968161113b565b935060408601359250606086013567ffffffffffffffff808211156112ba57600080fd5b6112c689838a016111d6565b935060808801359150808211156112dc57600080fd5b506112e9888289016111d6565b9150509295509295909350565b60006020828403121561130857600080fd5b81356106608161113b565b60008060006060848603121561132857600080fd5b83356113338161113b565b925060208401359150604084013567ffffffffffffffff81111561135657600080fd5b611362868287016111d6565b9150509250925092565b6000806040838503121561137f57600080fd5b823561138a8161113b565b9150602083013561139a8161113b565b809150509250929050565b600080600080608085870312156113bb57600080fd5b84356113c68161113b565b935060208501359250604085013567ffffffffffffffff808211156113ea57600080fd5b6113f6888389016111d6565b9350606087013591508082111561140c57600080fd5b50611419878288016111d6565b91505092959194509250565b6000806040838503121561143857600080fd5b82359150602083013567ffffffffffffffff81111561145657600080fd5b611462858286016111d6565b9150509250929050565b600181811c9082168061148057607f821691505b6020821081036114a057634e487b7160e01b600052602260045260246000fd5b50919050565b6020808252602c908201527f4552433737373a2063616c6c6572206973206e6f7420616e206f70657261746f60408201526b39103337b9103437b63232b960a11b606082015260800190565b634e487b7160e01b600052601160045260246000fd5b60008282101561151a5761151a6114f2565b500390565b83815260606020820152600061153860608301856110db565b828103604084015261154a81856110db565b9695505050505050565b60006020828403121561156657600080fd5b81516106608161113b565b6001600160a01b0387811682528681166020830152851660408201526060810184905260c0608082018190526000906115ac908301856110db565b82810360a08401526115be81856110db565b9998505050505050505050565b600082198211156115de576115de6114f2565b50019056fea26469706673582212203624fedc523f04cc7508d00e75174f3676604fec453cf9204dc1784bb2b7044464736f6c634300080e0033",
  "immutableReferences": {},
  "source": "// SPDX-License-Identifier: MIT\n// OpenZeppelin Contracts (last updated v4.6.0) (token/ERC777/ERC777.sol)\n\npragma solidity ^0.8.0;\n\nimport \"./IERC777.sol\";\nimport \"./IERC777Recipient.sol\";\nimport \"./IERC777Sender.sol\";\nimport \"../ERC20/IERC20.sol\";\nimport \"../../utils/Address.sol\";\nimport \"../../utils/Context.sol\";\nimport \"../../utils/introspection/IERC1820Registry.sol\";\n\n/**\n * @dev Implementation of the {IERC777} interface.\n *\n * This implementation is agnostic to the way tokens are created. This means\n * that a supply mechanism has to be added in a derived contract using {_mint}.\n *\n * Support for ERC20 is included in this contract, as specified by the EIP: both\n * the ERC777 and ERC20 interfaces can be safely used when interacting with it.\n * Both {IERC777-Sent} and {IERC20-Transfer} events are emitted on token\n * movements.\n *\n * Additionally, the {IERC777-granularity} value is hard-coded to `1`, meaning that there\n * are no special restrictions in the amount of tokens that created, moved, or\n * destroyed. This makes integration with ERC20 applications seamless.\n */\ncontract ERC777 is Context, IERC777, IERC20 {\n    using Address for address;\n\n    IERC1820Registry internal constant _ERC1820_REGISTRY = IERC1820Registry(0x1820a4B7618BdE71Dce8cdc73aAB6C95905faD24);\n\n    mapping(address => uint256) private _balances;\n\n    uint256 private _totalSupply;\n\n    string private _name;\n    string private _symbol;\n\n    bytes32 private constant _TOKENS_SENDER_INTERFACE_HASH = keccak256(\"ERC777TokensSender\");\n    bytes32 private constant _TOKENS_RECIPIENT_INTERFACE_HASH = keccak256(\"ERC777TokensRecipient\");\n\n    // This isn't ever read from - it's only used to respond to the defaultOperators query.\n    address[] private _defaultOperatorsArray;\n\n    // Immutable, but accounts may revoke them (tracked in __revokedDefaultOperators).\n    mapping(address => bool) private _defaultOperators;\n\n    // For each account, a mapping of its operators and revoked default operators.\n    mapping(address => mapping(address => bool)) private _operators;\n    mapping(address => mapping(address => bool)) private _revokedDefaultOperators;\n\n    // ERC20-allowances\n    mapping(address => mapping(address => uint256)) private _allowances;\n\n    /**\n     * @dev `defaultOperators` may be an empty array.\n     */\n    constructor(\n        string memory name_,\n        string memory symbol_,\n        address[] memory defaultOperators_\n    ) {\n        _name = name_;\n        _symbol = symbol_;\n\n        _defaultOperatorsArray = defaultOperators_;\n        for (uint256 i = 0; i < defaultOperators_.length; i++) {\n            _defaultOperators[defaultOperators_[i]] = true;\n        }\n\n        // register interfaces\n        _ERC1820_REGISTRY.setInterfaceImplementer(address(this), keccak256(\"ERC777Token\"), address(this));\n        _ERC1820_REGISTRY.setInterfaceImplementer(address(this), keccak256(\"ERC20Token\"), address(this));\n    }\n\n    /**\n     * @dev See {IERC777-name}.\n     */\n    function name() public view virtual override returns (string memory) {\n        return _name;\n    }\n\n    /**\n     * @dev See {IERC777-symbol}.\n     */\n    function symbol() public view virtual override returns (string memory) {\n        return _symbol;\n    }\n\n    /**\n     * @dev See {ERC20-decimals}.\n     *\n     * Always returns 18, as per the\n     * [ERC777 EIP](https://eips.ethereum.org/EIPS/eip-777#backward-compatibility).\n     */\n    function decimals() public pure virtual returns (uint8) {\n        return 18;\n    }\n\n    /**\n     * @dev See {IERC777-granularity}.\n     *\n     * This implementation always returns `1`.\n     */\n    function granularity() public view virtual override returns (uint256) {\n        return 1;\n    }\n\n    /**\n     * @dev See {IERC777-totalSupply}.\n     */\n    function totalSupply() public view virtual override(IERC20, IERC777) returns (uint256) {\n        return _totalSupply;\n    }\n\n    /**\n     * @dev Returns the amount of tokens owned by an account (`tokenHolder`).\n     */\n    function balanceOf(address tokenHolder) public view virtual override(IERC20, IERC777) returns (uint256) {\n        return _balances[tokenHolder];\n    }\n\n    /**\n     * @dev See {IERC777-send}.\n     *\n     * Also emits a {IERC20-Transfer} event for ERC20 compatibility.\n     */\n    function send(\n        address recipient,\n        uint256 amount,\n        bytes memory data\n    ) public virtual override {\n        _send(_msgSender(), recipient, amount, data, \"\", true);\n    }\n\n    /**\n     * @dev See {IERC20-transfer}.\n     *\n     * Unlike `send`, `recipient` is _not_ required to implement the {IERC777Recipient}\n     * interface if it is a contract.\n     *\n     * Also emits a {Sent} event.\n     */\n    function transfer(address recipient, uint256 amount) public virtual override returns (bool) {\n        _send(_msgSender(), recipient, amount, \"\", \"\", false);\n        return true;\n    }\n\n    /**\n     * @dev See {IERC777-burn}.\n     *\n     * Also emits a {IERC20-Transfer} event for ERC20 compatibility.\n     */\n    function burn(uint256 amount, bytes memory data) public virtual override {\n        _burn(_msgSender(), amount, data, \"\");\n    }\n\n    /**\n     * @dev See {IERC777-isOperatorFor}.\n     */\n    function isOperatorFor(address operator, address tokenHolder) public view virtual override returns (bool) {\n        return\n            operator == tokenHolder ||\n            (_defaultOperators[operator] && !_revokedDefaultOperators[tokenHolder][operator]) ||\n            _operators[tokenHolder][operator];\n    }\n\n    /**\n     * @dev See {IERC777-authorizeOperator}.\n     */\n    function authorizeOperator(address operator) public virtual override {\n        require(_msgSender() != operator, \"ERC777: authorizing self as operator\");\n\n        if (_defaultOperators[operator]) {\n            delete _revokedDefaultOperators[_msgSender()][operator];\n        } else {\n            _operators[_msgSender()][operator] = true;\n        }\n\n        emit AuthorizedOperator(operator, _msgSender());\n    }\n\n    /**\n     * @dev See {IERC777-revokeOperator}.\n     */\n    function revokeOperator(address operator) public virtual override {\n        require(operator != _msgSender(), \"ERC777: revoking self as operator\");\n\n        if (_defaultOperators[operator]) {\n            _revokedDefaultOperators[_msgSender()][operator] = true;\n        } else {\n            delete _operators[_msgSender()][operator];\n        }\n\n        emit RevokedOperator(operator, _msgSender());\n    }\n\n    /**\n     * @dev See {IERC777-defaultOperators}.\n     */\n    function defaultOperators() public view virtual override returns (address[] memory) {\n        return _defaultOperatorsArray;\n    }\n\n    /**\n     * @dev See {IERC777-operatorSend}.\n     *\n     * Emits {Sent} and {IERC20-Transfer} events.\n     */\n    function operatorSend(\n        address sender,\n        address recipient,\n        uint256 amount,\n        bytes memory data,\n        bytes memory operatorData\n    ) public virtual override {\n        require(isOperatorFor(_msgSender(), sender), \"ERC777: caller is not an operator for holder\");\n        _send(sender, recipient, amount, data, operatorData, true);\n    }\n\n    /**\n     * @dev See {IERC777-operatorBurn}.\n     *\n     * Emits {Burned} and {IERC20-Transfer} events.\n     */\n    function operatorBurn(\n        address account,\n        uint256 amount,\n        bytes memory data,\n        bytes memory operatorData\n    ) public virtual override {\n        require(isOperatorFor(_msgSender(), account), \"ERC777: caller is not an operator for holder\");\n        _burn(account, amount, data, operatorData);\n    }\n\n    /**\n     * @dev See {IERC20-allowance}.\n     *\n     * Note that operator and allowance concepts are orthogonal: operators may\n     * not have allowance, and accounts with allowance may not be operators\n     * themselves.\n     */\n    function allowance(address holder, address spender) public view virtual override returns (uint256) {\n        return _allowances[holder][spender];\n    }\n\n    /**\n     * @dev See {IERC20-approve}.\n     *\n     * NOTE: If `value` is the maximum `uint256`, the allowance is not updated on\n     * `transferFrom`. This is semantically equivalent to an infinite approval.\n     *\n     * Note that accounts cannot have allowance issued by their operators.\n     */\n    function approve(address spender, uint256 value) public virtual override returns (bool) {\n        address holder = _msgSender();\n        _approve(holder, spender, value);\n        return true;\n    }\n\n    /**\n     * @dev See {IERC20-transferFrom}.\n     *\n     * NOTE: Does not update the allowance if the current allowance\n     * is the maximum `uint256`.\n     *\n     * Note that operator and allowance concepts are orthogonal: operators cannot\n     * call `transferFrom` (unless they have allowance), and accounts with\n     * allowance cannot call `operatorSend` (unless they are operators).\n     *\n     * Emits {Sent}, {IERC20-Transfer} and {IERC20-Approval} events.\n     */\n    function transferFrom(\n        address holder,\n        address recipient,\n        uint256 amount\n    ) public virtual override returns (bool) {\n        address spender = _msgSender();\n        _spendAllowance(holder, spender, amount);\n        _send(holder, recipient, amount, \"\", \"\", false);\n        return true;\n    }\n\n    /**\n     * @dev Creates `amount` tokens and assigns them to `account`, increasing\n     * the total supply.\n     *\n     * If a send hook is registered for `account`, the corresponding function\n     * will be called with `operator`, `data` and `operatorData`.\n     *\n     * See {IERC777Sender} and {IERC777Recipient}.\n     *\n     * Emits {Minted} and {IERC20-Transfer} events.\n     *\n     * Requirements\n     *\n     * - `account` cannot be the zero address.\n     * - if `account` is a contract, it must implement the {IERC777Recipient}\n     * interface.\n     */\n    function _mint(\n        address account,\n        uint256 amount,\n        bytes memory userData,\n        bytes memory operatorData\n    ) internal virtual {\n        _mint(account, amount, userData, operatorData, true);\n    }\n\n    /**\n     * @dev Creates `amount` tokens and assigns them to `account`, increasing\n     * the total supply.\n     *\n     * If `requireReceptionAck` is set to true, and if a send hook is\n     * registered for `account`, the corresponding function will be called with\n     * `operator`, `data` and `operatorData`.\n     *\n     * See {IERC777Sender} and {IERC777Recipient}.\n     *\n     * Emits {Minted} and {IERC20-Transfer} events.\n     *\n     * Requirements\n     *\n     * - `account` cannot be the zero address.\n     * - if `account` is a contract, it must implement the {IERC777Recipient}\n     * interface.\n     */\n    function _mint(\n        address account,\n        uint256 amount,\n        bytes memory userData,\n        bytes memory operatorData,\n        bool requireReceptionAck\n    ) internal virtual {\n        require(account != address(0), \"ERC777: mint to the zero address\");\n\n        address operator = _msgSender();\n\n        _beforeTokenTransfer(operator, address(0), account, amount);\n\n        // Update state variables\n        _totalSupply += amount;\n        _balances[account] += amount;\n\n        _callTokensReceived(operator, address(0), account, amount, userData, operatorData, requireReceptionAck);\n\n        emit Minted(operator, account, amount, userData, operatorData);\n        emit Transfer(address(0), account, amount);\n    }\n\n    /**\n     * @dev Send tokens\n     * @param from address token holder address\n     * @param to address recipient address\n     * @param amount uint256 amount of tokens to transfer\n     * @param userData bytes extra information provided by the token holder (if any)\n     * @param operatorData bytes extra information provided by the operator (if any)\n     * @param requireReceptionAck if true, contract recipients are required to implement ERC777TokensRecipient\n     */\n    function _send(\n        address from,\n        address to,\n        uint256 amount,\n        bytes memory userData,\n        bytes memory operatorData,\n        bool requireReceptionAck\n    ) internal virtual {\n        require(from != address(0), \"ERC777: transfer from the zero address\");\n        require(to != address(0), \"ERC777: transfer to the zero address\");\n\n        address operator = _msgSender();\n\n        _callTokensToSend(operator, from, to, amount, userData, operatorData);\n\n        _move(operator, from, to, amount, userData, operatorData);\n\n        _callTokensReceived(operator, from, to, amount, userData, operatorData, requireReceptionAck);\n    }\n\n    /**\n     * @dev Burn tokens\n     * @param from address token holder address\n     * @param amount uint256 amount of tokens to burn\n     * @param data bytes extra information provided by the token holder\n     * @param operatorData bytes extra information provided by the operator (if any)\n     */\n    function _burn(\n        address from,\n        uint256 amount,\n        bytes memory data,\n        bytes memory operatorData\n    ) internal virtual {\n        require(from != address(0), \"ERC777: burn from the zero address\");\n\n        address operator = _msgSender();\n\n        _callTokensToSend(operator, from, address(0), amount, data, operatorData);\n\n        _beforeTokenTransfer(operator, from, address(0), amount);\n\n        // Update state variables\n        uint256 fromBalance = _balances[from];\n        require(fromBalance >= amount, \"ERC777: burn amount exceeds balance\");\n        unchecked {\n            _balances[from] = fromBalance - amount;\n        }\n        _totalSupply -= amount;\n\n        emit Burned(operator, from, amount, data, operatorData);\n        emit Transfer(from, address(0), amount);\n    }\n\n    function _move(\n        address operator,\n        address from,\n        address to,\n        uint256 amount,\n        bytes memory userData,\n        bytes memory operatorData\n    ) private {\n        _beforeTokenTransfer(operator, from, to, amount);\n\n        uint256 fromBalance = _balances[from];\n        require(fromBalance >= amount, \"ERC777: transfer amount exceeds balance\");\n        unchecked {\n            _balances[from] = fromBalance - amount;\n        }\n        _balances[to] += amount;\n\n        emit Sent(operator, from, to, amount, userData, operatorData);\n        emit Transfer(from, to, amount);\n    }\n\n    /**\n     * @dev See {ERC20-_approve}.\n     *\n     * Note that accounts cannot have allowance issued by their operators.\n     */\n    function _approve(\n        address holder,\n        address spender,\n        uint256 value\n    ) internal virtual {\n        require(holder != address(0), \"ERC777: approve from the zero address\");\n        require(spender != address(0), \"ERC777: approve to the zero address\");\n\n        _allowances[holder][spender] = value;\n        emit Approval(holder, spender, value);\n    }\n\n    /**\n     * @dev Call from.tokensToSend() if the interface is registered\n     * @param operator address operator requesting the transfer\n     * @param from address token holder address\n     * @param to address recipient address\n     * @param amount uint256 amount of tokens to transfer\n     * @param userData bytes extra information provided by the token holder (if any)\n     * @param operatorData bytes extra information provided by the operator (if any)\n     */\n    function _callTokensToSend(\n        address operator,\n        address from,\n        address to,\n        uint256 amount,\n        bytes memory userData,\n        bytes memory operatorData\n    ) private {\n        address implementer = _ERC1820_REGISTRY.getInterfaceImplementer(from, _TOKENS_SENDER_INTERFACE_HASH);\n        if (implementer != address(0)) {\n            IERC777Sender(implementer).tokensToSend(operator, from, to, amount, userData, operatorData);\n        }\n    }\n\n    /**\n     * @dev Call to.tokensReceived() if the interface is registered. Reverts if the recipient is a contract but\n     * tokensReceived() was not registered for the recipient\n     * @param operator address operator requesting the transfer\n     * @param from address token holder address\n     * @param to address recipient address\n     * @param amount uint256 amount of tokens to transfer\n     * @param userData bytes extra information provided by the token holder (if any)\n     * @param operatorData bytes extra information provided by the operator (if any)\n     * @param requireReceptionAck if true, contract recipients are required to implement ERC777TokensRecipient\n     */\n    function _callTokensReceived(\n        address operator,\n        address from,\n        address to,\n        uint256 amount,\n        bytes memory userData,\n        bytes memory operatorData,\n        bool requireReceptionAck\n    ) private {\n        address implementer = _ERC1820_REGISTRY.getInterfaceImplementer(to, _TOKENS_RECIPIENT_INTERFACE_HASH);\n        if (implementer != address(0)) {\n            IERC777Recipient(implementer).tokensReceived(operator, from, to, amount, userData, operatorData);\n        } else if (requireReceptionAck) {\n            require(!to.isContract(), \"ERC777: token recipient contract has no implementer for ERC777TokensRecipient\");\n        }\n    }\n\n    /**\n     * @dev Updates `owner` s allowance for `spender` based on spent `amount`.\n     *\n     * Does not update the allowance amount in case of infinite allowance.\n     * Revert if not enough allowance is available.\n     *\n     * Might emit an {Approval} event.\n     */\n    function _spendAllowance(\n        address owner,\n        address spender,\n        uint256 amount\n    ) internal virtual {\n        uint256 currentAllowance = allowance(owner, spender);\n        if (currentAllowance != type(uint256).max) {\n            require(currentAllowance >= amount, \"ERC777: insufficient allowance\");\n            unchecked {\n                _approve(owner, spender, currentAllowance - amount);\n            }\n        }\n    }\n\n    /**\n     * @dev Hook that is called before any token transfer. This includes\n     * calls to {send}, {transfer}, {operatorSend}, minting and burning.\n     *\n     * Calling conditions:\n     *\n     * - when `from` and `to` are both non-zero, `amount` of ``from``'s tokens\n     * will be to transferred to `to`.\n     * - when `from` is zero, `amount` tokens will be minted for `to`.\n     * - when `to` is zero, `amount` of ``from``'s tokens will be burned.\n     * - `from` and `to` are never both zero.\n     *\n     * To learn more about hooks, head to xref:ROOT:extending-contracts.adoc#using-hooks[Using Hooks].\n     */\n    function _beforeTokenTransfer(\n        address operator,\n        address from,\n        address to,\n        uint256 amount\n    ) internal virtual {}\n}\n",
  "sourcePath": "/Users/macbookpro/Projects/NFT/NFTExchange/contracts/openzeppelin-solidity/contracts/token/ERC777/ERC777.sol",
  "compiler": {
    "name": "solc",
    "version": "0.8.14+commit.80d49f37.Emscripten.clang"
  },
  "schemaVersion": "3.4.7",
  "updatedAt": "2022-06-13T13:59:54.918Z",
  "devdoc": {
    "details": "Implementation of the {IERC777} interface. This implementation is agnostic to the way tokens are created. This means that a supply mechanism has to be added in a derived contract using {_mint}. Support for ERC20 is included in this contract, as specified by the EIP: both the ERC777 and ERC20 interfaces can be safely used when interacting with it. Both {IERC777-Sent} and {IERC20-Transfer} events are emitted on token movements. Additionally, the {IERC777-granularity} value is hard-coded to `1`, meaning that there are no special restrictions in the amount of tokens that created, moved, or destroyed. This makes integration with ERC20 applications seamless.",
    "kind": "dev",
    "methods": {
      "allowance(address,address)": {
        "details": "See {IERC20-allowance}. Note that operator and allowance concepts are orthogonal: operators may not have allowance, and accounts with allowance may not be operators themselves."
      },
      "approve(address,uint256)": {
        "details": "See {IERC20-approve}. NOTE: If `value` is the maximum `uint256`, the allowance is not updated on `transferFrom`. This is semantically equivalent to an infinite approval. Note that accounts cannot have allowance issued by their operators."
      },
      "authorizeOperator(address)": {
        "details": "See {IERC777-authorizeOperator}."
      },
      "balanceOf(address)": {
        "details": "Returns the amount of tokens owned by an account (`tokenHolder`)."
      },
      "burn(uint256,bytes)": {
        "details": "See {IERC777-burn}. Also emits a {IERC20-Transfer} event for ERC20 compatibility."
      },
      "constructor": {
        "details": "`defaultOperators` may be an empty array."
      },
      "decimals()": {
        "details": "See {ERC20-decimals}. Always returns 18, as per the [ERC777 EIP](https://eips.ethereum.org/EIPS/eip-777#backward-compatibility)."
      },
      "defaultOperators()": {
        "details": "See {IERC777-defaultOperators}."
      },
      "granularity()": {
        "details": "See {IERC777-granularity}. This implementation always returns `1`."
      },
      "isOperatorFor(address,address)": {
        "details": "See {IERC777-isOperatorFor}."
      },
      "name()": {
        "details": "See {IERC777-name}."
      },
      "operatorBurn(address,uint256,bytes,bytes)": {
        "details": "See {IERC777-operatorBurn}. Emits {Burned} and {IERC20-Transfer} events."
      },
      "operatorSend(address,address,uint256,bytes,bytes)": {
        "details": "See {IERC777-operatorSend}. Emits {Sent} and {IERC20-Transfer} events."
      },
      "revokeOperator(address)": {
        "details": "See {IERC777-revokeOperator}."
      },
      "send(address,uint256,bytes)": {
        "details": "See {IERC777-send}. Also emits a {IERC20-Transfer} event for ERC20 compatibility."
      },
      "symbol()": {
        "details": "See {IERC777-symbol}."
      },
      "totalSupply()": {
        "details": "See {IERC777-totalSupply}."
      },
      "transfer(address,uint256)": {
        "details": "See {IERC20-transfer}. Unlike `send`, `recipient` is _not_ required to implement the {IERC777Recipient} interface if it is a contract. Also emits a {Sent} event."
      },
      "transferFrom(address,address,uint256)": {
        "details": "See {IERC20-transferFrom}. NOTE: Does not update the allowance if the current allowance is the maximum `uint256`. Note that operator and allowance concepts are orthogonal: operators cannot call `transferFrom` (unless they have allowance), and accounts with allowance cannot call `operatorSend` (unless they are operators). Emits {Sent}, {IERC20-Transfer} and {IERC20-Approval} events."
      }
    },
    "version": 1
  },
  "userdoc": {
    "kind": "user",
    "methods": {},
    "version": 1
  }
}