{
  "contractName": "LibArbitrumL2",
  "abi": [
    {
      "inputs": [],
      "name": "ARBSYS",
      "outputs": [
        {
          "internalType": "address",
          "name": "",
          "type": "address"
        }
      ],
      "stateMutability": "view",
      "type": "function"
    }
  ],
  "bytecode": "0x6091610038600b82828239805160001a607314602b57634e487b7160e01b600052600060045260246000fd5b30600052607381538281f3fe730000000000000000000000000000000000000000301460806040526004361060335760003560e01c8063bf0a12cf146038575b600080fd5b603f606481565b6040516001600160a01b03909116815260200160405180910390f3fea2646970667358221220899ccd4e87492fbc82f7f2f1a40b3cabc8c6989e724ac004ef4013eb55adad8864736f6c634300080f0033",
  "immutableReferences": {},
  "source": "// SPDX-License-Identifier: MIT\n// OpenZeppelin Contracts (last updated v4.6.0) (crosschain/arbitrum/LibArbitrumL2.sol)\n\npragma solidity ^0.8.4;\n\nimport {IArbSys as ArbitrumL2_Bridge} from \"../../vendor/arbitrum/IArbSys.sol\";\nimport \"../errors.sol\";\n\n/**\n * @dev Primitives for cross-chain aware contracts for\n * [Arbitrum](https://arbitrum.io/).\n *\n * This version should only be used on L2 to process cross-chain messages\n * originating from L1. For the other side, use {LibArbitrumL1}.\n */\nlibrary LibArbitrumL2 {\n    /**\n     * @dev Returns whether the current function call is the result of a\n     * cross-chain message relayed by `arbsys`.\n     */\n    address public constant ARBSYS = 0x0000000000000000000000000000000000000064;\n\n    function isCrossChain(address arbsys) internal view returns (bool) {\n        return ArbitrumL2_Bridge(arbsys).isTopLevelCall();\n    }\n\n    /**\n     * @dev Returns the address of the sender that triggered the current\n     * cross-chain message through `arbsys`.\n     *\n     * NOTE: {isCrossChain} should be checked before trying to recover the\n     * sender, as it will revert with `NotCrossChainCall` if the current\n     * function call is not the result of a cross-chain message.\n     */\n    function crossChainSender(address arbsys) internal view returns (address) {\n        if (!isCrossChain(arbsys)) revert NotCrossChainCall();\n\n        return\n            ArbitrumL2_Bridge(arbsys).wasMyCallersAddressAliased()\n                ? ArbitrumL2_Bridge(arbsys).myCallersAddressWithoutAliasing()\n                : msg.sender;\n    }\n}\n",
  "sourcePath": "/Users/macbookpro/Projects/NFT/NFTExchange/contracts/openzeppelin-solidity/contracts/crosschain/arbitrum/LibArbitrumL2.sol",
  "compiler": {
    "name": "solc",
    "version": "0.8.15+commit.e14f2714.Emscripten.clang"
  },
  "schemaVersion": "3.4.7",
  "updatedAt": "2022-06-29T16:30:27.801Z",
  "devdoc": {
    "details": "Primitives for cross-chain aware contracts for [Arbitrum](https://arbitrum.io/). This version should only be used on L2 to process cross-chain messages originating from L1. For the other side, use {LibArbitrumL1}.",
    "kind": "dev",
    "methods": {},
    "stateVariables": {
      "ARBSYS": {
        "details": "Returns whether the current function call is the result of a cross-chain message relayed by `arbsys`."
      }
    },
    "version": 1
  },
  "userdoc": {
    "kind": "user",
    "methods": {},
    "version": 1
  }
}