{
  "contractName": "MyNFT",
  "abi": [
    {
      "inputs": [],
      "stateMutability": "nonpayable",
      "type": "constructor"
    },
    {
      "inputs": [],
      "name": "ApprovalCallerNotOwnerNorApproved",
      "type": "error"
    },
    {
      "inputs": [],
      "name": "ApprovalQueryForNonexistentToken",
      "type": "error"
    },
    {
      "inputs": [],
      "name": "ApprovalToCurrentOwner",
      "type": "error"
    },
    {
      "inputs": [],
      "name": "ApproveToCaller",
      "type": "error"
    },
    {
      "inputs": [],
      "name": "BalanceQueryForZeroAddress",
      "type": "error"
    },
    {
      "inputs": [],
      "name": "InvalidQueryRange",
      "type": "error"
    },
    {
      "inputs": [],
      "name": "MintToZeroAddress",
      "type": "error"
    },
    {
      "inputs": [],
      "name": "MintZeroQuantity",
      "type": "error"
    },
    {
      "inputs": [],
      "name": "OwnerQueryForNonexistentToken",
      "type": "error"
    },
    {
      "inputs": [],
      "name": "TransferCallerNotOwnerNorApproved",
      "type": "error"
    },
    {
      "inputs": [],
      "name": "TransferFromIncorrectOwner",
      "type": "error"
    },
    {
      "inputs": [],
      "name": "TransferToNonERC721ReceiverImplementer",
      "type": "error"
    },
    {
      "inputs": [],
      "name": "TransferToZeroAddress",
      "type": "error"
    },
    {
      "inputs": [],
      "name": "URIQueryForNonexistentToken",
      "type": "error"
    },
    {
      "anonymous": false,
      "inputs": [
        {
          "indexed": true,
          "internalType": "address",
          "name": "owner",
          "type": "address"
        },
        {
          "indexed": true,
          "internalType": "address",
          "name": "approved",
          "type": "address"
        },
        {
          "indexed": true,
          "internalType": "uint256",
          "name": "tokenId",
          "type": "uint256"
        }
      ],
      "name": "Approval",
      "type": "event"
    },
    {
      "anonymous": false,
      "inputs": [
        {
          "indexed": true,
          "internalType": "address",
          "name": "owner",
          "type": "address"
        },
        {
          "indexed": true,
          "internalType": "address",
          "name": "operator",
          "type": "address"
        },
        {
          "indexed": false,
          "internalType": "bool",
          "name": "approved",
          "type": "bool"
        }
      ],
      "name": "ApprovalForAll",
      "type": "event"
    },
    {
      "anonymous": false,
      "inputs": [
        {
          "indexed": true,
          "internalType": "address",
          "name": "from",
          "type": "address"
        },
        {
          "indexed": true,
          "internalType": "address",
          "name": "to",
          "type": "address"
        },
        {
          "indexed": true,
          "internalType": "uint256",
          "name": "tokenId",
          "type": "uint256"
        }
      ],
      "name": "Transfer",
      "type": "event"
    },
    {
      "inputs": [
        {
          "internalType": "address",
          "name": "to",
          "type": "address"
        },
        {
          "internalType": "uint256",
          "name": "tokenId",
          "type": "uint256"
        }
      ],
      "name": "approve",
      "outputs": [],
      "stateMutability": "nonpayable",
      "type": "function"
    },
    {
      "inputs": [
        {
          "internalType": "address",
          "name": "owner",
          "type": "address"
        }
      ],
      "name": "balanceOf",
      "outputs": [
        {
          "internalType": "uint256",
          "name": "",
          "type": "uint256"
        }
      ],
      "stateMutability": "view",
      "type": "function",
      "constant": true
    },
    {
      "inputs": [
        {
          "internalType": "uint256",
          "name": "tokenId",
          "type": "uint256"
        }
      ],
      "name": "explicitOwnershipOf",
      "outputs": [
        {
          "components": [
            {
              "internalType": "address",
              "name": "addr",
              "type": "address"
            },
            {
              "internalType": "uint64",
              "name": "startTimestamp",
              "type": "uint64"
            },
            {
              "internalType": "bool",
              "name": "burned",
              "type": "bool"
            }
          ],
          "internalType": "struct IERC721A.TokenOwnership",
          "name": "",
          "type": "tuple"
        }
      ],
      "stateMutability": "view",
      "type": "function",
      "constant": true
    },
    {
      "inputs": [
        {
          "internalType": "uint256[]",
          "name": "tokenIds",
          "type": "uint256[]"
        }
      ],
      "name": "explicitOwnershipsOf",
      "outputs": [
        {
          "components": [
            {
              "internalType": "address",
              "name": "addr",
              "type": "address"
            },
            {
              "internalType": "uint64",
              "name": "startTimestamp",
              "type": "uint64"
            },
            {
              "internalType": "bool",
              "name": "burned",
              "type": "bool"
            }
          ],
          "internalType": "struct IERC721A.TokenOwnership[]",
          "name": "",
          "type": "tuple[]"
        }
      ],
      "stateMutability": "view",
      "type": "function",
      "constant": true
    },
    {
      "inputs": [
        {
          "internalType": "uint256",
          "name": "tokenId",
          "type": "uint256"
        }
      ],
      "name": "getApproved",
      "outputs": [
        {
          "internalType": "address",
          "name": "",
          "type": "address"
        }
      ],
      "stateMutability": "view",
      "type": "function",
      "constant": true
    },
    {
      "inputs": [
        {
          "internalType": "address",
          "name": "owner",
          "type": "address"
        },
        {
          "internalType": "address",
          "name": "operator",
          "type": "address"
        }
      ],
      "name": "isApprovedForAll",
      "outputs": [
        {
          "internalType": "bool",
          "name": "",
          "type": "bool"
        }
      ],
      "stateMutability": "view",
      "type": "function",
      "constant": true
    },
    {
      "inputs": [],
      "name": "name",
      "outputs": [
        {
          "internalType": "string",
          "name": "",
          "type": "string"
        }
      ],
      "stateMutability": "view",
      "type": "function",
      "constant": true
    },
    {
      "inputs": [],
      "name": "owner",
      "outputs": [
        {
          "internalType": "address",
          "name": "",
          "type": "address"
        }
      ],
      "stateMutability": "view",
      "type": "function",
      "constant": true
    },
    {
      "inputs": [
        {
          "internalType": "uint256",
          "name": "tokenId",
          "type": "uint256"
        }
      ],
      "name": "ownerOf",
      "outputs": [
        {
          "internalType": "address",
          "name": "",
          "type": "address"
        }
      ],
      "stateMutability": "view",
      "type": "function",
      "constant": true
    },
    {
      "inputs": [
        {
          "internalType": "address",
          "name": "from",
          "type": "address"
        },
        {
          "internalType": "address",
          "name": "to",
          "type": "address"
        },
        {
          "internalType": "uint256",
          "name": "tokenId",
          "type": "uint256"
        }
      ],
      "name": "safeTransferFrom",
      "outputs": [],
      "stateMutability": "nonpayable",
      "type": "function"
    },
    {
      "inputs": [
        {
          "internalType": "address",
          "name": "from",
          "type": "address"
        },
        {
          "internalType": "address",
          "name": "to",
          "type": "address"
        },
        {
          "internalType": "uint256",
          "name": "tokenId",
          "type": "uint256"
        },
        {
          "internalType": "bytes",
          "name": "_data",
          "type": "bytes"
        }
      ],
      "name": "safeTransferFrom",
      "outputs": [],
      "stateMutability": "nonpayable",
      "type": "function"
    },
    {
      "inputs": [
        {
          "internalType": "address",
          "name": "operator",
          "type": "address"
        },
        {
          "internalType": "bool",
          "name": "approved",
          "type": "bool"
        }
      ],
      "name": "setApprovalForAll",
      "outputs": [],
      "stateMutability": "nonpayable",
      "type": "function"
    },
    {
      "inputs": [
        {
          "internalType": "bytes4",
          "name": "interfaceId",
          "type": "bytes4"
        }
      ],
      "name": "supportsInterface",
      "outputs": [
        {
          "internalType": "bool",
          "name": "",
          "type": "bool"
        }
      ],
      "stateMutability": "view",
      "type": "function",
      "constant": true
    },
    {
      "inputs": [],
      "name": "symbol",
      "outputs": [
        {
          "internalType": "string",
          "name": "",
          "type": "string"
        }
      ],
      "stateMutability": "view",
      "type": "function",
      "constant": true
    },
    {
      "inputs": [
        {
          "internalType": "uint256",
          "name": "tokenId",
          "type": "uint256"
        }
      ],
      "name": "tokenURI",
      "outputs": [
        {
          "internalType": "string",
          "name": "",
          "type": "string"
        }
      ],
      "stateMutability": "view",
      "type": "function",
      "constant": true
    },
    {
      "inputs": [
        {
          "internalType": "address",
          "name": "owner",
          "type": "address"
        }
      ],
      "name": "tokensOfOwner",
      "outputs": [
        {
          "internalType": "uint256[]",
          "name": "",
          "type": "uint256[]"
        }
      ],
      "stateMutability": "view",
      "type": "function",
      "constant": true
    },
    {
      "inputs": [
        {
          "internalType": "address",
          "name": "owner",
          "type": "address"
        },
        {
          "internalType": "uint256",
          "name": "start",
          "type": "uint256"
        },
        {
          "internalType": "uint256",
          "name": "stop",
          "type": "uint256"
        }
      ],
      "name": "tokensOfOwnerIn",
      "outputs": [
        {
          "internalType": "uint256[]",
          "name": "",
          "type": "uint256[]"
        }
      ],
      "stateMutability": "view",
      "type": "function",
      "constant": true
    },
    {
      "inputs": [],
      "name": "totalSupply",
      "outputs": [
        {
          "internalType": "uint256",
          "name": "",
          "type": "uint256"
        }
      ],
      "stateMutability": "view",
      "type": "function",
      "constant": true
    },
    {
      "inputs": [
        {
          "internalType": "address",
          "name": "from",
          "type": "address"
        },
        {
          "internalType": "address",
          "name": "to",
          "type": "address"
        },
        {
          "internalType": "uint256",
          "name": "tokenId",
          "type": "uint256"
        }
      ],
      "name": "transferFrom",
      "outputs": [],
      "stateMutability": "nonpayable",
      "type": "function"
    },
    {
      "inputs": [
        {
          "internalType": "uint256",
          "name": "quantity",
          "type": "uint256"
        }
      ],
      "name": "mint",
      "outputs": [],
      "stateMutability": "nonpayable",
      "type": "function"
    }
  ],
  "bytecode": "0x60806040523480156200001157600080fd5b5060405180604001604052806005815260200164135e53919560da1b81525060405180604001604052806005815260200164135653919560da1b81525081600290816200005f919062000132565b5060036200006e828262000132565b50600080555050600880546001600160a01b03191633179055620001fe565b634e487b7160e01b600052604160045260246000fd5b600181811c90821680620000b857607f821691505b602082108103620000d957634e487b7160e01b600052602260045260246000fd5b50919050565b601f8211156200012d57600081815260208120601f850160051c81016020861015620001085750805b601f850160051c820191505b81811015620001295782815560010162000114565b5050505b505050565b81516001600160401b038111156200014e576200014e6200008d565b62000166816200015f8454620000a3565b84620000df565b602080601f8311600181146200019e5760008415620001855750858301515b600019600386901b1c1916600185901b17855562000129565b600085815260208120601f198616915b82811015620001cf57888601518255948401946001909101908401620001ae565b5085821015620001ee5787850151600019600388901b60f8161c191681555b5050505050600190811b01905550565b61155a806200020e6000396000f3fe608060405234801561001057600080fd5b506004361061012c5760003560e01c80638462151c116100ad578063a22cb46511610071578063a22cb46514610291578063b88d4fde146102a4578063c23dc68f146102b7578063c87b56dd146102d7578063e985e9c5146102ea57600080fd5b80638462151c146102305780638da5cb5b1461025057806395d89b411461026357806399a2557a1461026b578063a0712d681461027e57600080fd5b806323b872dd116100f457806323b872dd146101c457806342842e0e146101d75780635bbb2177146101ea5780636352211e1461020a57806370a082311461021d57600080fd5b806301ffc9a71461013157806306fdde0314610159578063081812fc1461016e578063095ea7b31461019957806318160ddd146101ae575b600080fd5b61014461013f366004610fe5565b6102fd565b60405190151581526020015b60405180910390f35b61016161034f565b604051610150919061105a565b61018161017c36600461106d565b6103e1565b6040516001600160a01b039091168152602001610150565b6101ac6101a73660046110a2565b610425565b005b600154600054035b604051908152602001610150565b6101ac6101d23660046110cc565b6104f7565b6101ac6101e53660046110cc565b610507565b6101fd6101f836600461114f565b610522565b60405161015091906111f5565b61018161021836600461106d565b6105e9565b6101b661022b366004611260565b6105f4565b61024361023e366004611260565b610643565b604051610150919061127b565b600854610181906001600160a01b031681565b610161610745565b6102436102793660046112b3565b610754565b6101ac61028c36600461106d565b6108ce565b6101ac61029f3660046112e6565b6108db565b6101ac6102b2366004611322565b610970565b6102ca6102c536600461106d565b6109ba565b60405161015091906113e2565b6101616102e536600461106d565b610a23565b6101446102f8366004611418565b610ab3565b60006301ffc9a760e01b6001600160e01b03198316148061032e57506380ac58cd60e01b6001600160e01b03198316145b806103495750635b5e139f60e01b6001600160e01b03198316145b92915050565b60606002805461035e9061144b565b80601f016020809104026020016040519081016040528092919081815260200182805461038a9061144b565b80156103d75780601f106103ac576101008083540402835291602001916103d7565b820191906000526020600020905b8154815290600101906020018083116103ba57829003601f168201915b5050505050905090565b60006103ec82610ae1565b610409576040516333d1c03960e21b815260040160405180910390fd5b506000908152600660205260409020546001600160a01b031690565b600061043082610b08565b9050806001600160a01b0316836001600160a01b0316036104645760405163250fdee360e21b815260040160405180910390fd5b336001600160a01b0382161461049b5761047e8133610ab3565b61049b576040516367d9dca160e11b815260040160405180910390fd5b60008281526006602052604080822080546001600160a01b0319166001600160a01b0387811691821790925591518593918516917f8c5be1e5ebec7d5bd14f71427d1e84f3dd0314c0f7b2291e5b200ac8c7c3b92591a4505050565b610502838383610b6f565b505050565b61050283838360405180602001604052806000815250610970565b805160609060008167ffffffffffffffff81111561054257610542611108565b60405190808252806020026020018201604052801561058d57816020015b60408051606081018252600080825260208083018290529282015282526000199092019101816105605790505b50905060005b8281146105e1576105bc8582815181106105af576105af611485565b60200260200101516109ba565b8282815181106105ce576105ce611485565b6020908102919091010152600101610593565b509392505050565b600061034982610b08565b60006001600160a01b03821661061d576040516323d3ad8160e21b815260040160405180910390fd5b506001600160a01b031660009081526005602052604090205467ffffffffffffffff1690565b60606000806000610653856105f4565b905060008167ffffffffffffffff81111561067057610670611108565b604051908082528060200260200182016040528015610699578160200160208202803683370190505b5090506106bf604080516060810182526000808252602082018190529181019190915290565b60005b838614610739576106d281610d16565b915081604001516107315781516001600160a01b0316156106f257815194505b876001600160a01b0316856001600160a01b031603610731578083878060010198508151811061072457610724611485565b6020026020010181815250505b6001016106c2565b50909695505050505050565b60606003805461035e9061144b565b606081831061077657604051631960ccad60e11b815260040160405180910390fd5b60008061078260005490565b905080841115610790578093505b600061079b876105f4565b9050848610156107ba57858503818110156107b4578091505b506107be565b5060005b60008167ffffffffffffffff8111156107d9576107d9611108565b604051908082528060200260200182016040528015610802578160200160208202803683370190505b509050816000036108185793506108c792505050565b6000610823886109ba565b905060008160400151610834575080515b885b8881141580156108465750848714155b156108bb5761085481610d16565b925082604001516108b35782516001600160a01b03161561087457825191505b8a6001600160a01b0316826001600160a01b0316036108b357808488806001019950815181106108a6576108a6611485565b6020026020010181815250505b600101610836565b50505092835250909150505b9392505050565b6108d83382610d4b565b50565b336001600160a01b038316036109045760405163b06307db60e01b815260040160405180910390fd5b3360008181526007602090815260408083206001600160a01b03871680855290835292819020805460ff191686151590811790915590519081529192917f17307eab39ab6107e8899845ad3d59bd9653f200f220920489ca2b5937696c31910160405180910390a35050565b61097b848484610b6f565b6001600160a01b0383163b156109b45761099784848484610e2c565b6109b4576040516368d2bf6b60e11b815260040160405180910390fd5b50505050565b60408051606080820183526000808352602080840182905283850182905284519283018552818352820181905292810183905290915060005483106109ff5792915050565b610a0883610d16565b9050806040015115610a1a5792915050565b6108c783610f17565b6060610a2e82610ae1565b610a4b57604051630a14c4b560e41b815260040160405180910390fd5b6000610a6260408051602081019091526000815290565b90508051600003610a8257604051806020016040528060008152506108c7565b80610a8c84610f45565b604051602001610a9d92919061149b565b6040516020818303038152906040529392505050565b6001600160a01b03918216600090815260076020908152604080832093909416825291909152205460ff1690565b6000805482108015610349575050600090815260046020526040902054600160e01b161590565b600081600054811015610b565760008181526004602052604081205490600160e01b82169003610b54575b806000036108c7575060001901600081815260046020526040902054610b33565b505b604051636f96cda160e11b815260040160405180910390fd5b6000610b7a82610b08565b9050836001600160a01b0316816001600160a01b031614610bad5760405162a1148160e81b815260040160405180910390fd5b6000336001600160a01b0386161480610bcb5750610bcb8533610ab3565b80610be6575033610bdb846103e1565b6001600160a01b0316145b905080610c0657604051632ce44b5f60e11b815260040160405180910390fd5b6001600160a01b038416610c2d57604051633a954ecd60e21b815260040160405180910390fd5b600083815260066020908152604080832080546001600160a01b03191690556001600160a01b038881168452600583528184208054600019019055871683528083208054600101905585835260049091528120600160e11b4260a01b8717811790915583169003610cce57600183016000818152600460205260408120549003610ccc576000548114610ccc5760008181526004602052604090208390555b505b82846001600160a01b0316866001600160a01b03167fddf252ad1be2c89b69c2b068fc378daa952ba7f163c4a11628f55a4df523b3ef60405160405180910390a45050505050565b604080516060810182526000808252602082018190529181019190915260008281526004602052604090205461034990610f94565b6000546001600160a01b038316610d7457604051622e076360e81b815260040160405180910390fd5b81600003610d955760405163b562e8dd60e01b815260040160405180910390fd5b6001600160a01b03831660009081526005602090815260408083208054680100000000000000018702019055838352600490915290204260a01b84176001841460e11b179055808083015b6040516001830192906001600160a01b038716906000907fddf252ad1be2c89b69c2b068fc378daa952ba7f163c4a11628f55a4df523b3ef908290a4808210610de05750600055505050565b604051630a85bd0160e11b81526000906001600160a01b0385169063150b7a0290610e619033908990889088906004016114ca565b6020604051808303816000875af1925050508015610e9c575060408051601f3d908101601f19168201909252610e9991810190611507565b60015b610efa573d808015610eca576040519150601f19603f3d011682016040523d82523d6000602084013e610ecf565b606091505b508051600003610ef2576040516368d2bf6b60e11b815260040160405180910390fd5b805181602001fd5b6001600160e01b031916630a85bd0160e11b149050949350505050565b6040805160608101825260008082526020820181905291810191909152610349610f4083610b08565b610f94565b604080516080810191829052607f0190826030600a8206018353600a90045b8015610f8257600183039250600a81066030018353600a9004610f64565b50819003601f19909101908152919050565b604080516060810182526001600160a01b038316815260a083901c67ffffffffffffffff166020820152600160e01b90921615159082015290565b6001600160e01b0319811681146108d857600080fd5b600060208284031215610ff757600080fd5b81356108c781610fcf565b60005b8381101561101d578181015183820152602001611005565b838111156109b45750506000910152565b60008151808452611046816020860160208601611002565b601f01601f19169290920160200192915050565b6020815260006108c7602083018461102e565b60006020828403121561107f57600080fd5b5035919050565b80356001600160a01b038116811461109d57600080fd5b919050565b600080604083850312156110b557600080fd5b6110be83611086565b946020939093013593505050565b6000806000606084860312156110e157600080fd5b6110ea84611086565b92506110f860208501611086565b9150604084013590509250925092565b634e487b7160e01b600052604160045260246000fd5b604051601f8201601f1916810167ffffffffffffffff8111828210171561114757611147611108565b604052919050565b6000602080838503121561116257600080fd5b823567ffffffffffffffff8082111561117a57600080fd5b818501915085601f83011261118e57600080fd5b8135818111156111a0576111a0611108565b8060051b91506111b184830161111e565b81815291830184019184810190888411156111cb57600080fd5b938501935b838510156111e9578435825293850193908501906111d0565b98975050505050505050565b6020808252825182820181905260009190848201906040850190845b818110156107395761124d83855180516001600160a01b0316825260208082015167ffffffffffffffff16908301526040908101511515910152565b9284019260609290920191600101611211565b60006020828403121561127257600080fd5b6108c782611086565b6020808252825182820181905260009190848201906040850190845b8181101561073957835183529284019291840191600101611297565b6000806000606084860312156112c857600080fd5b6112d184611086565b95602085013595506040909401359392505050565b600080604083850312156112f957600080fd5b61130283611086565b91506020830135801515811461131757600080fd5b809150509250929050565b6000806000806080858703121561133857600080fd5b61134185611086565b93506020611350818701611086565b935060408601359250606086013567ffffffffffffffff8082111561137457600080fd5b818801915088601f83011261138857600080fd5b81358181111561139a5761139a611108565b6113ac601f8201601f1916850161111e565b915080825289848285010111156113c257600080fd5b808484018584013760008482840101525080935050505092959194509250565b81516001600160a01b0316815260208083015167ffffffffffffffff169082015260408083015115159082015260608101610349565b6000806040838503121561142b57600080fd5b61143483611086565b915061144260208401611086565b90509250929050565b600181811c9082168061145f57607f821691505b60208210810361147f57634e487b7160e01b600052602260045260246000fd5b50919050565b634e487b7160e01b600052603260045260246000fd5b600083516114ad818460208801611002565b8351908301906114c1818360208801611002565b01949350505050565b6001600160a01b03858116825284166020820152604081018390526080606082018190526000906114fd9083018461102e565b9695505050505050565b60006020828403121561151957600080fd5b81516108c781610fcf56fea2646970667358221220592af7f82003b22e654abffd54530c638ef3a845ffff2a9b4a2cd5e7a7d2f18f64736f6c634300080f0033",
  "immutableReferences": {},
  "source": "// SPDX-License-Identifier: MIT\npragma solidity >=0.4.21 <8.10.0;\n\nimport \"./erc721a/contracts/extensions/ERC721AQueryable.sol\";\n\ncontract MyNFT is ERC721AQueryable {\n    address public owner;\n\n    // error OnlyOwner(address owner);\n    // modifier onlyOwner() {\n    //   if(owner != msg.sender) revert OnlyOwner(msg.sender);\n    //   _;\n    // }\n    \n    constructor() ERC721A(\"MyNFT\", \"MYNFT\") {\n      owner = msg.sender;\n    }\n\n    function mint(uint256 quantity) external {\n        // `_mint`'s second argument now takes in a `quantity`, not a `tokenId`.\n        _mint(msg.sender, quantity);\n    }\n}",
  "sourcePath": "/Users/macbookpro/Projects/NFT/NFTExchange/contracts/MyNFT.sol",
  "compiler": {
    "name": "solc",
    "version": "0.8.15+commit.e14f2714.Emscripten.clang"
  },
  "schemaVersion": "3.4.7",
  "updatedAt": "2022-06-29T16:30:39.511Z",
  "networkType": "ethereum",
  "devdoc": {
    "kind": "dev",
    "methods": {
      "approve(address,uint256)": {
        "details": "See {IERC721-approve}."
      },
      "balanceOf(address)": {
        "details": "See {IERC721-balanceOf}."
      },
      "explicitOwnershipOf(uint256)": {
        "details": "Returns the `TokenOwnership` struct at `tokenId` without reverting. If the `tokenId` is out of bounds:   - `addr` = `address(0)`   - `startTimestamp` = `0`   - `burned` = `false` If the `tokenId` is burned:   - `addr` = `<Address of owner before token was burned>`   - `startTimestamp` = `<Timestamp when token was burned>`   - `burned = `true` Otherwise:   - `addr` = `<Address of owner>`   - `startTimestamp` = `<Timestamp of start of ownership>`   - `burned = `false`"
      },
      "explicitOwnershipsOf(uint256[])": {
        "details": "Returns an array of `TokenOwnership` structs at `tokenIds` in order. See {ERC721AQueryable-explicitOwnershipOf}"
      },
      "getApproved(uint256)": {
        "details": "See {IERC721-getApproved}."
      },
      "isApprovedForAll(address,address)": {
        "details": "See {IERC721-isApprovedForAll}."
      },
      "name()": {
        "details": "See {IERC721Metadata-name}."
      },
      "ownerOf(uint256)": {
        "details": "See {IERC721-ownerOf}."
      },
      "safeTransferFrom(address,address,uint256)": {
        "details": "See {IERC721-safeTransferFrom}."
      },
      "safeTransferFrom(address,address,uint256,bytes)": {
        "details": "See {IERC721-safeTransferFrom}."
      },
      "setApprovalForAll(address,bool)": {
        "details": "See {IERC721-setApprovalForAll}."
      },
      "supportsInterface(bytes4)": {
        "details": "See {IERC165-supportsInterface}."
      },
      "symbol()": {
        "details": "See {IERC721Metadata-symbol}."
      },
      "tokenURI(uint256)": {
        "details": "See {IERC721Metadata-tokenURI}."
      },
      "tokensOfOwner(address)": {
        "details": "Returns an array of token IDs owned by `owner`. This function scans the ownership mapping and is O(totalSupply) in complexity. It is meant to be called off-chain. See {ERC721AQueryable-tokensOfOwnerIn} for splitting the scan into multiple smaller scans if the collection is large enough to cause an out-of-gas error (10K pfp collections should be fine)."
      },
      "tokensOfOwnerIn(address,uint256,uint256)": {
        "details": "Returns an array of token IDs owned by `owner`, in the range [`start`, `stop`) (i.e. `start <= tokenId < stop`). This function allows for tokens to be queried if the collection grows too big for a single call of {ERC721AQueryable-tokensOfOwner}. Requirements: - `start` < `stop`"
      },
      "totalSupply()": {
        "details": "Returns the total number of tokens in existence. Burned tokens will reduce the count.  To get the total number of tokens minted, please see `_totalMinted`."
      },
      "transferFrom(address,address,uint256)": {
        "details": "See {IERC721-transferFrom}."
      }
    },
    "version": 1
  },
  "userdoc": {
    "errors": {
      "ApprovalCallerNotOwnerNorApproved()": [
        {
          "notice": "The caller must own the token or be an approved operator."
        }
      ],
      "ApprovalQueryForNonexistentToken()": [
        {
          "notice": "The token does not exist."
        }
      ],
      "ApprovalToCurrentOwner()": [
        {
          "notice": "The caller cannot approve to the current owner."
        }
      ],
      "ApproveToCaller()": [
        {
          "notice": "The caller cannot approve to their own address."
        }
      ],
      "BalanceQueryForZeroAddress()": [
        {
          "notice": "Cannot query the balance for the zero address."
        }
      ],
      "InvalidQueryRange()": [
        {
          "notice": "Invalid query range (`start` >= `stop`)."
        }
      ],
      "MintToZeroAddress()": [
        {
          "notice": "Cannot mint to the zero address."
        }
      ],
      "MintZeroQuantity()": [
        {
          "notice": "The quantity of tokens minted must be more than zero."
        }
      ],
      "OwnerQueryForNonexistentToken()": [
        {
          "notice": "The token does not exist."
        }
      ],
      "TransferCallerNotOwnerNorApproved()": [
        {
          "notice": "The caller must own the token or be an approved operator."
        }
      ],
      "TransferFromIncorrectOwner()": [
        {
          "notice": "The token must be owned by `from`."
        }
      ],
      "TransferToNonERC721ReceiverImplementer()": [
        {
          "notice": "Cannot safely transfer to a contract that does not implement the ERC721Receiver interface."
        }
      ],
      "TransferToZeroAddress()": [
        {
          "notice": "Cannot transfer to the zero address."
        }
      ],
      "URIQueryForNonexistentToken()": [
        {
          "notice": "The token does not exist."
        }
      ]
    },
    "kind": "user",
    "methods": {},
    "version": 1
  }
}