{
  "contractName": "VestingWallet",
  "abi": [
    {
      "inputs": [
        {
          "internalType": "address",
          "name": "beneficiaryAddress",
          "type": "address"
        },
        {
          "internalType": "uint64",
          "name": "startTimestamp",
          "type": "uint64"
        },
        {
          "internalType": "uint64",
          "name": "durationSeconds",
          "type": "uint64"
        }
      ],
      "stateMutability": "nonpayable",
      "type": "constructor"
    },
    {
      "anonymous": false,
      "inputs": [
        {
          "indexed": true,
          "internalType": "address",
          "name": "token",
          "type": "address"
        },
        {
          "indexed": false,
          "internalType": "uint256",
          "name": "amount",
          "type": "uint256"
        }
      ],
      "name": "ERC20Released",
      "type": "event"
    },
    {
      "anonymous": false,
      "inputs": [
        {
          "indexed": false,
          "internalType": "uint256",
          "name": "amount",
          "type": "uint256"
        }
      ],
      "name": "EtherReleased",
      "type": "event"
    },
    {
      "stateMutability": "payable",
      "type": "receive"
    },
    {
      "inputs": [],
      "name": "beneficiary",
      "outputs": [
        {
          "internalType": "address",
          "name": "",
          "type": "address"
        }
      ],
      "stateMutability": "view",
      "type": "function"
    },
    {
      "inputs": [],
      "name": "start",
      "outputs": [
        {
          "internalType": "uint256",
          "name": "",
          "type": "uint256"
        }
      ],
      "stateMutability": "view",
      "type": "function"
    },
    {
      "inputs": [],
      "name": "duration",
      "outputs": [
        {
          "internalType": "uint256",
          "name": "",
          "type": "uint256"
        }
      ],
      "stateMutability": "view",
      "type": "function"
    },
    {
      "inputs": [],
      "name": "released",
      "outputs": [
        {
          "internalType": "uint256",
          "name": "",
          "type": "uint256"
        }
      ],
      "stateMutability": "view",
      "type": "function"
    },
    {
      "inputs": [
        {
          "internalType": "address",
          "name": "token",
          "type": "address"
        }
      ],
      "name": "released",
      "outputs": [
        {
          "internalType": "uint256",
          "name": "",
          "type": "uint256"
        }
      ],
      "stateMutability": "view",
      "type": "function"
    },
    {
      "inputs": [
        {
          "internalType": "address",
          "name": "token",
          "type": "address"
        }
      ],
      "name": "release",
      "outputs": [],
      "stateMutability": "nonpayable",
      "type": "function"
    },
    {
      "inputs": [],
      "name": "release",
      "outputs": [],
      "stateMutability": "nonpayable",
      "type": "function"
    },
    {
      "inputs": [
        {
          "internalType": "uint64",
          "name": "timestamp",
          "type": "uint64"
        }
      ],
      "name": "vestedAmount",
      "outputs": [
        {
          "internalType": "uint256",
          "name": "",
          "type": "uint256"
        }
      ],
      "stateMutability": "view",
      "type": "function"
    },
    {
      "inputs": [
        {
          "internalType": "address",
          "name": "token",
          "type": "address"
        },
        {
          "internalType": "uint64",
          "name": "timestamp",
          "type": "uint64"
        }
      ],
      "name": "vestedAmount",
      "outputs": [
        {
          "internalType": "uint256",
          "name": "",
          "type": "uint256"
        }
      ],
      "stateMutability": "view",
      "type": "function"
    }
  ],
  "bytecode": "0x60e060405234801561001057600080fd5b50604051610c71380380610c7183398101604081905261002f916100dd565b6001600160a01b03831661009c5760405162461bcd60e51b815260206004820152602a60248201527f56657374696e6757616c6c65743a2062656e6566696369617279206973207a65604482015269726f206164647265737360b01b606482015260840160405180910390fd5b6001600160a01b039092166080526001600160401b0390811660a0521660c05261012e565b80516001600160401b03811681146100d857600080fd5b919050565b6000806000606084860312156100f257600080fd5b83516001600160a01b038116811461010957600080fd5b9250610117602085016100c1565b9150610125604085016100c1565b90509250925092565b60805160a05160c051610af96101786000396000818160d80152818161046901526104be01526000610421015260008181610142015281816102c801526103ee0152610af96000f3fe60806040526004361061008a5760003560e01c8063810ec23b11610059578063810ec23b1461016c57806386d1a69f1461018c57806396132521146101a15780639852595c146101b6578063be9a6555146101ec57600080fd5b80630a17b06b146100965780630fb5a6b4146100c9578063191655871461010657806338af3eed1461012857600080fd5b3661009157005b600080fd5b3480156100a257600080fd5b506100b66100b1366004610903565b610201565b6040519081526020015b60405180910390f35b3480156100d557600080fd5b507f000000000000000000000000000000000000000000000000000000000000000067ffffffffffffffff166100b6565b34801561011257600080fd5b50610126610121366004610935565b610225565b005b34801561013457600080fd5b506040516001600160a01b037f00000000000000000000000000000000000000000000000000000000000000001681526020016100c0565b34801561017857600080fd5b506100b6610187366004610950565b6102f1565b34801561019857600080fd5b50610126610387565b3480156101ad57600080fd5b506000546100b6565b3480156101c257600080fd5b506100b66101d1366004610935565b6001600160a01b031660009081526001602052604090205490565b3480156101f857600080fd5b506100b6610416565b600061021f61020f60005490565b6102199047610999565b83610444565b92915050565b6001600160a01b03811660009081526001602052604081205461024883426102f1565b61025291906109b1565b6001600160a01b03831660009081526001602052604081208054929350839290919061027f908490610999565b90915550506040518181526001600160a01b038316907fc0e523490dd523c33b1878c9eb14ff46991e3f5b2cd33710918618f2a39cba1b9060200160405180910390a26102ed827f00000000000000000000000000000000000000000000000000000000000000008361051e565b5050565b6001600160a01b038216600090815260016020526040812054610380906040516370a0823160e01b81523060048201526001600160a01b038616906370a0823190602401602060405180830381865afa158015610352573d6000803e3d6000fd5b505050506040513d601f19601f8201168201806040525081019061037691906109c8565b6102199190610999565b9392505050565b6000805461039442610201565b61039e91906109b1565b9050806000808282546103b19190610999565b90915550506040518181527fda9d4e5f101b8b9b1c5b76d0c5a9f7923571acfc02376aa076b75a8c080c956b9060200160405180910390a16104137f000000000000000000000000000000000000000000000000000000000000000082610575565b50565b67ffffffffffffffff7f00000000000000000000000000000000000000000000000000000000000000001690565b600061044e610416565b8267ffffffffffffffff1610156104675750600061021f565b7f000000000000000000000000000000000000000000000000000000000000000067ffffffffffffffff1661049a610416565b6104a49190610999565b8267ffffffffffffffff1611156104bc57508161021f565b7f000000000000000000000000000000000000000000000000000000000000000067ffffffffffffffff166104ef610416565b6105039067ffffffffffffffff85166109b1565b61050d90856109e1565b6105179190610a00565b905061021f565b604080516001600160a01b038416602482015260448082018490528251808303909101815260649091019091526020810180516001600160e01b031663a9059cbb60e01b179052610570908490610693565b505050565b804710156105ca5760405162461bcd60e51b815260206004820152601d60248201527f416464726573733a20696e73756666696369656e742062616c616e636500000060448201526064015b60405180910390fd5b6000826001600160a01b03168260405160006040518083038185875af1925050503d8060008114610617576040519150601f19603f3d011682016040523d82523d6000602084013e61061c565b606091505b50509050806105705760405162461bcd60e51b815260206004820152603a60248201527f416464726573733a20756e61626c6520746f2073656e642076616c75652c207260448201527f6563697069656e74206d6179206861766520726576657274656400000000000060648201526084016105c1565b60006106e8826040518060400160405280602081526020017f5361666545524332303a206c6f772d6c6576656c2063616c6c206661696c6564815250856001600160a01b03166107659092919063ffffffff16565b80519091501561057057808060200190518101906107069190610a22565b6105705760405162461bcd60e51b815260206004820152602a60248201527f5361666545524332303a204552433230206f7065726174696f6e20646964206e6044820152691bdd081cdd58d8d9595960b21b60648201526084016105c1565b6060610774848460008561077c565b949350505050565b6060824710156107dd5760405162461bcd60e51b815260206004820152602660248201527f416464726573733a20696e73756666696369656e742062616c616e636520666f6044820152651c8818d85b1b60d21b60648201526084016105c1565b6001600160a01b0385163b6108345760405162461bcd60e51b815260206004820152601d60248201527f416464726573733a2063616c6c20746f206e6f6e2d636f6e747261637400000060448201526064016105c1565b600080866001600160a01b031685876040516108509190610a74565b60006040518083038185875af1925050503d806000811461088d576040519150601f19603f3d011682016040523d82523d6000602084013e610892565b606091505b50915091506108a28282866108ad565b979650505050505050565b606083156108bc575081610380565b8251156108cc5782518084602001fd5b8160405162461bcd60e51b81526004016105c19190610a90565b803567ffffffffffffffff811681146108fe57600080fd5b919050565b60006020828403121561091557600080fd5b610380826108e6565b80356001600160a01b03811681146108fe57600080fd5b60006020828403121561094757600080fd5b6103808261091e565b6000806040838503121561096357600080fd5b61096c8361091e565b915061097a602084016108e6565b90509250929050565b634e487b7160e01b600052601160045260246000fd5b600082198211156109ac576109ac610983565b500190565b6000828210156109c3576109c3610983565b500390565b6000602082840312156109da57600080fd5b5051919050565b60008160001904831182151516156109fb576109fb610983565b500290565b600082610a1d57634e487b7160e01b600052601260045260246000fd5b500490565b600060208284031215610a3457600080fd5b8151801515811461038057600080fd5b60005b83811015610a5f578181015183820152602001610a47565b83811115610a6e576000848401525b50505050565b60008251610a86818460208701610a44565b9190910192915050565b6020815260008251806020840152610aaf816040850160208701610a44565b601f01601f1916919091016040019291505056fea26469706673582212203f615b1be82ba6a4478c27299267d3a62028a4f3921ca9c58f7266650665b56264736f6c634300080e0033",
  "immutableReferences": {
    "2011": [
      {
        "length": 32,
        "start": 322
      },
      {
        "length": 32,
        "start": 712
      },
      {
        "length": 32,
        "start": 1006
      }
    ],
    "2013": [
      {
        "length": 32,
        "start": 1057
      }
    ],
    "2015": [
      {
        "length": 32,
        "start": 216
      },
      {
        "length": 32,
        "start": 1129
      },
      {
        "length": 32,
        "start": 1214
      }
    ]
  },
  "source": "// SPDX-License-Identifier: MIT\n// OpenZeppelin Contracts (last updated v4.6.0) (finance/VestingWallet.sol)\npragma solidity ^0.8.0;\n\nimport \"../token/ERC20/utils/SafeERC20.sol\";\nimport \"../utils/Address.sol\";\nimport \"../utils/Context.sol\";\nimport \"../utils/math/Math.sol\";\n\n/**\n * @title VestingWallet\n * @dev This contract handles the vesting of Eth and ERC20 tokens for a given beneficiary. Custody of multiple tokens\n * can be given to this contract, which will release the token to the beneficiary following a given vesting schedule.\n * The vesting schedule is customizable through the {vestedAmount} function.\n *\n * Any token transferred to this contract will follow the vesting schedule as if they were locked from the beginning.\n * Consequently, if the vesting has already started, any amount of tokens sent to this contract will (at least partly)\n * be immediately releasable.\n */\ncontract VestingWallet is Context {\n    event EtherReleased(uint256 amount);\n    event ERC20Released(address indexed token, uint256 amount);\n\n    uint256 private _released;\n    mapping(address => uint256) private _erc20Released;\n    address private immutable _beneficiary;\n    uint64 private immutable _start;\n    uint64 private immutable _duration;\n\n    /**\n     * @dev Set the beneficiary, start timestamp and vesting duration of the vesting wallet.\n     */\n    constructor(\n        address beneficiaryAddress,\n        uint64 startTimestamp,\n        uint64 durationSeconds\n    ) {\n        require(beneficiaryAddress != address(0), \"VestingWallet: beneficiary is zero address\");\n        _beneficiary = beneficiaryAddress;\n        _start = startTimestamp;\n        _duration = durationSeconds;\n    }\n\n    /**\n     * @dev The contract should be able to receive Eth.\n     */\n    receive() external payable virtual {}\n\n    /**\n     * @dev Getter for the beneficiary address.\n     */\n    function beneficiary() public view virtual returns (address) {\n        return _beneficiary;\n    }\n\n    /**\n     * @dev Getter for the start timestamp.\n     */\n    function start() public view virtual returns (uint256) {\n        return _start;\n    }\n\n    /**\n     * @dev Getter for the vesting duration.\n     */\n    function duration() public view virtual returns (uint256) {\n        return _duration;\n    }\n\n    /**\n     * @dev Amount of eth already released\n     */\n    function released() public view virtual returns (uint256) {\n        return _released;\n    }\n\n    /**\n     * @dev Amount of token already released\n     */\n    function released(address token) public view virtual returns (uint256) {\n        return _erc20Released[token];\n    }\n\n    /**\n     * @dev Release the native token (ether) that have already vested.\n     *\n     * Emits a {TokensReleased} event.\n     */\n    function release() public virtual {\n        uint256 releasable = vestedAmount(uint64(block.timestamp)) - released();\n        _released += releasable;\n        emit EtherReleased(releasable);\n        Address.sendValue(payable(beneficiary()), releasable);\n    }\n\n    /**\n     * @dev Release the tokens that have already vested.\n     *\n     * Emits a {TokensReleased} event.\n     */\n    function release(address token) public virtual {\n        uint256 releasable = vestedAmount(token, uint64(block.timestamp)) - released(token);\n        _erc20Released[token] += releasable;\n        emit ERC20Released(token, releasable);\n        SafeERC20.safeTransfer(IERC20(token), beneficiary(), releasable);\n    }\n\n    /**\n     * @dev Calculates the amount of ether that has already vested. Default implementation is a linear vesting curve.\n     */\n    function vestedAmount(uint64 timestamp) public view virtual returns (uint256) {\n        return _vestingSchedule(address(this).balance + released(), timestamp);\n    }\n\n    /**\n     * @dev Calculates the amount of tokens that has already vested. Default implementation is a linear vesting curve.\n     */\n    function vestedAmount(address token, uint64 timestamp) public view virtual returns (uint256) {\n        return _vestingSchedule(IERC20(token).balanceOf(address(this)) + released(token), timestamp);\n    }\n\n    /**\n     * @dev Virtual implementation of the vesting formula. This returns the amount vested, as a function of time, for\n     * an asset given its total historical allocation.\n     */\n    function _vestingSchedule(uint256 totalAllocation, uint64 timestamp) internal view virtual returns (uint256) {\n        if (timestamp < start()) {\n            return 0;\n        } else if (timestamp > start() + duration()) {\n            return totalAllocation;\n        } else {\n            return (totalAllocation * (timestamp - start())) / duration();\n        }\n    }\n}\n",
  "sourcePath": "/Users/macbookpro/Projects/NFT/NFTExchange/contracts/openzeppelin-solidity/contracts/finance/VestingWallet.sol",
  "compiler": {
    "name": "solc",
    "version": "0.8.14+commit.80d49f37.Emscripten.clang"
  },
  "schemaVersion": "3.4.7",
  "updatedAt": "2022-06-13T13:59:54.710Z",
  "devdoc": {
    "details": "This contract handles the vesting of Eth and ERC20 tokens for a given beneficiary. Custody of multiple tokens can be given to this contract, which will release the token to the beneficiary following a given vesting schedule. The vesting schedule is customizable through the {vestedAmount} function. Any token transferred to this contract will follow the vesting schedule as if they were locked from the beginning. Consequently, if the vesting has already started, any amount of tokens sent to this contract will (at least partly) be immediately releasable.",
    "kind": "dev",
    "methods": {
      "beneficiary()": {
        "details": "Getter for the beneficiary address."
      },
      "constructor": {
        "details": "Set the beneficiary, start timestamp and vesting duration of the vesting wallet."
      },
      "duration()": {
        "details": "Getter for the vesting duration."
      },
      "release()": {
        "details": "Release the native token (ether) that have already vested. Emits a {TokensReleased} event."
      },
      "release(address)": {
        "details": "Release the tokens that have already vested. Emits a {TokensReleased} event."
      },
      "released()": {
        "details": "Amount of eth already released"
      },
      "released(address)": {
        "details": "Amount of token already released"
      },
      "start()": {
        "details": "Getter for the start timestamp."
      },
      "vestedAmount(address,uint64)": {
        "details": "Calculates the amount of tokens that has already vested. Default implementation is a linear vesting curve."
      },
      "vestedAmount(uint64)": {
        "details": "Calculates the amount of ether that has already vested. Default implementation is a linear vesting curve."
      }
    },
    "title": "VestingWallet",
    "version": 1
  },
  "userdoc": {
    "kind": "user",
    "methods": {},
    "version": 1
  }
}